:020000040800F2
:10000000000008206D2C0008012C0008032C0008BB
:10001000052C0008072C0008092C0008000000002F
:100020000000000000000000000000000B2C000891
:100030000D2C0008000000000F2C0008112C0008F7
:10004000BD2C0008BD2C0008BD2C0008BD2C0008EC
:10005000BD2C0008BD2C0008BD2C0008BD2C0008DC
:10006000BD2C0008BD2C0008BD2C0008BD2C0008CC
:10007000BD2C0008BD2C0008BD2C0008BD2C0008BC
:10008000BD2C0008BD2C0008BD2C0008BD2C0008AC
:10009000BD2C0008BD2C0008BD2C0008BD2C00089C
:1000A000BD2C0008BD2C0008BD2C0008BD2C00088C
:1000B000BD2C0008BD2C0008BD2C0008BD2C00087C
:1000C000BD2C0008BD2C0008BD2C0008BD2C00086C
:1000D000BD2C0008BD2C0008BD2C0008BD2C00085C
:1000E000BD2C0008BD2C0008BD2C0008BD2C00084C
:1000F000BD2C0008BD2C0008BD2C0008BD2C00083C
:10010000BD2C0008BD2C0008BD2C0008BD2C00082B
:10011000BD2C0008BD2C0008BD2C0008BD2C00081B
:10012000BD2C0008BD2C0008BD2C0008BD2C00080B
:10013000BD2C0008BD2C0008BD2C0008BD2C0008FB
:10014000BD2C0008BD2C0008BD2C0008BD2C0008EB
:10015000BD2C0008BD2C0008BD2C0008BD2C0008DB
:10016000BD2C0008BD2C0008BD2C0008BD2C0008CB
:10017000BD2C0008BD2C0008BD2C000800000000AC
:10018000BD2C0008BD2C0008BD2C0008BD2C0008AB
:10019000BD2C0008BD2C0008BD2C0008BD2C00089B
:1001A000BD2C0008BD2C0008BD2C0008BD2C00088B
:1001B000BD2C0008BD2C0008BD2C0008BD2C00087B
:1001C000BD2C0008BD2C000800000000BD2C00085C
:1001D000BD2C0008BD2C0008BD2C0008BD2C00085B
:1001E000BD2C0008BD2C0008BD2C0008BD2C00084B
:0801F000BD2C0008BD2C000825
:1001F80010B5054C237833B9044B13B10448AFF359
:1002080000800123237010BD1000002000000000B2
:10021800082D000808B5034B1BB103490348AFF389
:10022800008008BD0000000014000020082D000810
:1002380053B94AB9002908BF00281CBF4FF0FF3145
:100248004FF0FF3000F07AB9ADF1080C6DE904CE3B
:1002580000F006F8DDF804E0DDE9022304B0704799
:100268002DE9F0478C460D460446089E002B51D1D7
:100278008A4217466DD9B2FA82FEBEF1000F0BD042
:10028800CEF1200C01FA0EF520FA0CFC02FA0EF75A
:100298004CEA050C00FA0EF44FEA174A250CBCFB91
:1002A800FAF81FFA87F90AFB18CC45EA0C4508FB4F
:1002B80009F3AB420AD9ED1908F1FF3280F0238126
:1002C800AB4240F22081A8F102083D44ED1AA4B2E5
:1002D800B5FBFAF00AFB105544EA054400FB09F99E
:1002E800A14509D9E41900F1FF3380F00A81A1453D
:1002F80040F2078102383C44A4EB090440EA084074
:100308000021002E61D024FA0EF4002334607360BB
:10031800BDE8F0878B4207D9002E54D0002186E82B
:1003280021000846BDE8F087B3FA83F1002940F0C0
:100338008E80AB4202D3824200F2FA80841A65EBC7
:1003480003050120AC46002E3FD086E81010BDE81A
:10035800F08712B90127B7FBF2F7B7FA87FEBEF1AB
:10036800000F34D1EB1B3A0C1FFA87FC0121B3FBB9
:10037800F2F8250C02FB183345EA03450CFB08F399
:10038800AB4207D9ED1908F1FF3002D2AB4200F2B7
:10039800D1808046ED1AA3B2B5FBF2F002FB1055EE
:1003A80043EA05440CFB00FCA44507D9E41900F115
:1003B800FF3302D2A44500F2B8801846A4EB0C041F
:1003C80040EA08409DE731463046BDE8F087CEF167
:1003D800200405FA0EF307FA0EF720FA04F83A0C8F
:1003E80025FA04F448EA0308B4FBF2F14FEA184589
:1003F80002FB11441FFA87FC45EA044501FB0CF394
:10040800AB4200FA0EF409D9ED1901F1FF3080F082
:100418008A80AB4240F2878002393D44EB1A1FFACA
:1004280088F5B3FBF2F002FB103345EA034500FB05
:100438000CF3AB4207D9ED1900F1FF386FD2AB428C
:100448006DD902383D44EB1A40EA01418FE7C1F10A
:10045800200722FA07F88B4005FA01F448EA03035B
:1004680020FA07FE4FEA134CFD404EEA040EB5FB96
:10047800FCF94FEA1E440CFB19551FFA83F844EAAD
:10048800054509FB08F4AC4202FA01F200FA01FA48
:1004980008D9ED1809F1FF3043D2AC4241D9A9F18E
:1004A80002091D442D1B1FFA8EFEB5FBFCF00CFB48
:1004B80010554EEA054400FB08F8A04507D9E41892
:1004C80000F1FF3529D2A04527D902381C4440EA5B
:1004D8000940A4EB0804A0FB02894C45C6464D46DA
:1004E80015D312D056B1BAEB0E0364EB050404FA27
:1004F80007F7CB401F43CC40376074600021BDE84C
:10050800F0871846F8E69046E0E6C245EAD2B8EB2E
:10051800020E69EB03050138E4E72846D7E74046B1
:1005280091E78146BEE7014678E702383C4445E753
:10053800084608E7A8F102083D442BE7704700BFCA
:1005480038B50E4B05460E4A18784FF47A73B3FB4C
:10055800F0F31068B0FBF3F000F090F8044658B9D7
:100568000F2D09D8024629464FF0FF3000F04EF80B
:10057800044B20461D6038BD012038BD0000002016
:100588000C0000200400002008B5032000F02CF81F
:100598000020FFF7D5FF02F09FFA002008BD0000F9
:1005A800034A044B11681B780B441360704700BF63
:1005B8004000002000000020014B1868704700BF71
:1005C8004000002038B50446FFF7F6FF0546631CD7
:1005D8001EBF044B1B78E418FFF7EEFF401B844254
:1005E800FAD838BD00000020074A0002D36800F49A
:1005F800E06023F4E0631B041B0C43F0BF6343F487
:1006080000330343D360704700ED00E0194B30B569
:10061800DC68C4F30224C4F10703251D042B28BF9A
:100628000423062D4FF001058CBF033C002405FA76
:1006380003F3002803F1FF3301EA030101FA04F18F
:1006480005FA04F404F1FF3402EA040242EA010262
:100658004FEA021205DA00F00F00D2B2064B1A5424
:1006680030BD00F16040D2B200F5614080F800234F
:1006780030BD00BF00ED00E014ED00E00138B0F13E
:10068800807F0AD2064BF021064A5860002082F883
:100698002310072298601A6070470120704700BF36
:1006A80010E000E000ED00E0044B04281A680CBFDD
:1006B80042F0040222F004021A60704710E000E0E1
:1006C800704708B5FFF7FCFF08BD70B590F83440D7
:1006D800012C35D00124866D002580F8344090F82F
:1006E8003540012C4FF0020428D180F835400468C9
:1006F8004565256825F48025256063608368402B5F
:1007080019D1A260E160C26D3F239340B3602368B2
:1007180043F016032360636943F080036361036C4D
:100728001BB1236843F0080323602368002043F0CB
:100738000103236070BDA160E260E4E780F83450F3
:10074800022070BD406D70472DE9F04F0B6885B0F1
:10075800DFF8C081019300236C4ADFF8BC914FF0A9
:10076800010E019C0EFA03FE0EEA0406B64540F09F
:10077800B3804C6824F01007022F16D14FEAD30A31
:1007880003F0070B4FF00F0C00EB8A0A4FEA8B0BB4
:10079800DAF820500CFA0BFC25EA0C0C0D6905FA66
:1007A8000BF545EA0C05CAF820504FEA430A032521
:1007B800D0F800B004F0030C05FA0AF5013F0CFA72
:1007C8000AFCED43012F0BEA050B4CEA0B0CC0F8B1
:1007D80000C011D8876807EA050BCF6807FA0AFC3A
:1007E8004CEA0B078760476827EA0E0EC4F3001728
:1007F8009F4047EA0E074760C7683D408F6807FA81
:100808000AF73D43C560E50066D5D8F8445023F0A3
:10081800030703F0030E4FF00F0C45F4804507F172
:1008280080474FEA8E0EC8F8445007F59C37D8F831
:10083800445005F480450395039D0CFA0EF5D7F84E
:1008480008A02AEA050C324DA8424CD005F580656F
:10085800A8424AD005F58065A84248D005F58065CC
:10086800A84246D005F58065A84244D0484544D002
:1008780005F50065A84242D005F58065A84240D03C
:1008880005F58065A8423ED005F58065A84214BFED
:100898000A25092505FA0EF514F4803F45EA0C05EA
:1008A800BD606FEA060715680CBF3D40354314F478
:1008B800003F156055680CBF3D40354314F4801F58
:1008C800556095680CBF3D403543A4029560D568D6
:1008D80054BF3D403543D5600133102B7FF43FAF03
:1008E80005B0BDE8F08F0025D4E70125D2E7022541
:1008F800D0E70325CEE70425CCE70525CAE706257A
:10090800C8E70725C6E70825C4E700BF003C014043
:10091800000002400038024000140240F0B500F127
:10092800100E0746002517F8014B6619B6F5807FAB
:100938000FD80D44A7EB000C6CB977453546F2D1BA
:100948008C551E6023460D780126085DA8B11B1B37
:1009580008E00120F0BD05F801CB013CECE742F8C6
:10096800240001340F5D1819BD42F8D006FA05F3CA
:100978008342EED943000135E7E7F0BDF0B5ADF2AB
:10098800145D0D46044643AE02AF01AB324639460C
:10099800FFF7C4FF30B9DDF804E004F110020346A4
:1009A800734502D10DF2145DF0BD12F8011B0B293D
:1009B8000AD856F8234005EB810CCCF80C40FC5CB7
:1009C8000133013C6C54EBE70120EBE770B5046898
:1009D8000B4690B004F5F8618A4205D104F5FB6432
:1009E8004BB9002010B070BD04F5FC618A4228D1D3
:1009F80004F5FF64F4E701AD18462946FFF7BEFF8A
:100A08000028EFD16FF0F02328460C2123606360A3
:100A18006B1890F83820023990F8346013F8013CCC
:100A280008381B0203F470631A436B5C1B0203F45F
:100A38007063334343EA024344F8043D0029E7D195
:100A4800CFE70120CEE72DE9F0410468ADF6380D77
:100A58000F4604F5A0639A4207D104F244645FB9D3
:100A680000200DF6380DBDE8F08104F5CC639A42FC
:100A780052D104F2A474F2E70DF2344501AE6B468C
:100A880038462A463146FFF749FF0028E9D107F1E1
:100A98001001DDF800E04FF00A0C42AF70452ED18E
:100AA8006FF0F02342A9A22023600D466360A36083
:100AB80003F1D13303F12E23E36003F10213236121
:100AC80003F10213636103F10213A3612B1891F878
:100AD8002823023891F8246313F8013C08391B02D3
:100AE80003F470631A432B5C1B0203F470633343F3
:100AF80043EA024344F8043D0028E7D1B0E711F87F
:100B0800013B5BB1F02B15D01A0903F00F03013B31
:100B18001CFB0233A12B02D90120A2E7A02355F820
:100B2800202007EB8308C8F8A420325C0130013A82
:100B3800FA54B3E7A123F2E7F8B50446002800F019
:100B48000F8190F8493003F0FF021BB980F8482064
:100B580002F008F822680223894984F8493002F52E
:100B68005B70136B02F5577543F001031363136849
:100B780023F001031360136B23F07E031363136BDD
:100B880023F4C0531363136B43F400531363136BC1
:100B980043F480431363936B43F060039363794B8F
:100BA800A363794BE3630023236463648B7B043979
:100BB800CE7C1B0443EA06630E7C33434E7C43EA37
:100BC800062340F80439A842F0D1704B02F562764A
:100BD8006F4902F55E77C2F87833A3F104330D4606
:100BE8003046C2F87433A3F10433C2F87033AB7BD8
:100BF800043D95F813E01B0443EA0E6395F810E0F2
:100C080043EA0E0395F811E043EA0E2346F8043947
:100C1800BE42ECD1D2F82C3402F585651B0C1B04BE
:100C280043F47A4343F0F903C2F82C3491F8AE3018
:100C3800043991F8B3601B0443EA066391F8B06085
:100C4800334391F8B16043EA062345F804398542F5
:100C5800ECD1D2F82C3402F58B654E489BB243F0A8
:100C68004073C2F82C34D2F83C340340C2F83C3408
:100C78000123C2F838344FF00133C2F83434C2F8D3
:100C88003034D2F83C14444B89B241F08071C2F838
:100C98003C14D2F84814014041F4306141F00A0193
:100CA800C2F84814C2F84434A3F10433C2F84034FB
:100CB800D2F8481489B241F00071C2F84814D2F849
:100CC80058343649034002F59F6043F4EE4343F03D
:100CD8000203C2F85834324BC2F85434314BC2F8CC
:100CE8005034314BC2F84C34D2F858349BB243F0EC
:100CF8008073C2F8583491F8B030043991F8B5606F
:100D08001B0443EA066391F8B260334391F8B36079
:100D180043EA062340F80439A842ECD102F5A06260
:100D28001B492046FFF78FFEB8B9226820461B49A9
:100D380002F5CC62FFF787FE78B922682046104991
:100D480002F5F862FFF742FE38B9226820461749D3
:100D580002F5FC62FFF73AFE20B10120E064F8BD1D
:100D68000120F8BD2268536843F48073536001235F
:100D7800E061206284F84930E0642065F8BD00BF76
:100D8800E02E0008FC2E0008842E000808090A0B33
:100D9800D22D00080000FFFF06070809202D0008D3
:100DA800040400010304070501020404C42E00081A
:100DB800194B37B51A6C194C42F080521A641B6CE7
:100DC80003F080530193019B236843F4803323602D
:100DD800FFF7F2FB05466368DA030CD5236843F492
:100DE80000332360FFF7E8FB0C4C054663689B0360
:100DF8000AD5002006E0FFF7DFFB401BB0F57A7F3D
:100E0800E9D9032003B030BDFFF7D6FB401BB0F58E
:100E18007A7FEBD9F5E700BF003802400070004048
:100E28002DE9F341044618B9012002B0BDE8F0816C
:100E38000368D80710D4236899075ED42368190774
:100E480000F1A38023685A0700F1C480A269002A30
:100E580040F02E810020E8E7934B9A6802F00C02DC
:100E6800042A07D09A6802F00C02082A0AD15B68A3
:100E78005A0207D58C4B1B689B03DCD56368002B93
:100E8800D9D1D1E76368884DB3F5803F11D12B687C
:100E980043F480332B60FFF78FFB834D06462B68A6
:100EA8009F03C8D4FFF788FB801B6428F7D9032069
:100EB800BBE79BB92B6823F480332B602B6823F4A2
:100EC80080232B60FFF778FB06462B689803B2D582
:100ED800FFF772FB801B6428F7D9E8E7B3F5A02F6A
:100EE8002B6803D143F480232B60D0E723F48033AD
:100EF8002B602B6823F48023CCE76B4B9A6812F0A5
:100F08000C0F07D09A6802F00C02082A11D15B680E
:100F180059020ED4644B1A68920702D5E268012A76
:100F280082D11A68216922F0F80242EAC1021A60E5
:100F380084E7E3685C4DBBB12B6843F001032B6089
:100F4800FFF73AFB06462B689F0707D52B682269EF
:100F580023F0F80343EAC2032B606FE7FFF72CFB8B
:100F6800801B0228EFD9A2E72B6823F001032B602E
:100F7800FFF722FB06462B6898077FF55FAFFFF760
:100F88001BFB801B0228F6D991E76369464D83B1A4
:100F98006B6F43F001036B67FFF70EFB06466B6F41
:100FA8009B073FF54FAFFFF707FB801B0228F6D9D9
:100FB8007DE76B6F23F001036B67FFF7FDFA0646C9
:100FC8006B6F9F077FF53EAFFFF7F6FA801B02288D
:100FD800F6D96CE7344B1A6CD00027D41A6C01266A
:100FE80042F080521A641B6C03F080530193019BFA
:100FF8002E4D2B68D9051BD5A3682B4D012B27D166
:101008002B6F43F001032B6741F28835FFF7D4FAC1
:10101800254F80463B6F9B073FD5002E3FF416AF08
:10102800214A136C23F0805313640FE70026DFE78F
:101038002B6843F480732B60FFF7BEFA07462B68D2
:10104800DA05D9D4FFF7B8FAC01B6428F7D92EE718
:10105800ABB92B6F41F2883823F001032B672B6F54
:1010680023F004032B67FFF7A7FA07462B6F9807AF
:10107800D3D5FFF7A1FAC01B4045F7D917E7052BD1
:101088002B6F03D143F004032B67B9E723F0010367
:101098002B672B6F23F00403B5E7FFF78DFAA0EB5E
:1010A8000800A842B6D902E70038024000700040A4
:1010B800244DAB6803F00C03082B3FF4B5AE2B6846
:1010C800022A23F080732B602FD1FFF775FA0646AA
:1010D8002B68990123D4226AE3691343626A43EABD
:1010E8008213E26A43EA0263226B43EA0273A26A4A
:1010F800144C5208013A43EA02436B602B6843F0F0
:1011080080732B60FFF758FA054623689A013FF56C
:10111800A1AEFFF751FA401B0228F6D9C7E6FFF740
:101128004BFA801B0228D3D9C1E6FFF745FA0446DB
:101138002B689B017FF58EAEFFF73EFA001B022855
:10114800F6D9B4E600380240134908B58B6803F0B5
:101158000C03042B03D0082B03D0104808BD1048FB
:1011680008BD4A684B68496802F03F0213F48003DF
:10117800C1F388111ABF0A4800230848A1FB0001DF
:10118800FFF756F8044B5B68C3F3014301335B0078
:10119800B0FBF3F008BD00BF003802400024F400A3
:1011A80040787D012DE9F0410D46044610B9012033
:1011B800BDE8F081464A136803F00F038B4228D339
:1011C80021688F0730D4C80743D4414A136803F015
:1011D8000F039D4267D32268510770D4130707D5C0
:1011E8003C4A2169936823F4604343EAC10393604E
:1011F800FFF7AAFF374B384A9B68C3F30313D35C46
:10120800D840364B18600020FFF79AF90020BDE857
:10121800F081136823F00F030B431360136803F086
:101228000F039942C3D1CBE711F0040F294B03D028
:101238009A6842F4E0529A600E0703D59A6842F41D
:1012480060429A609A68A06822F0F00202439A60AD
:10125800B9E761681F4B01291A681CD112F4003FD5
:10126800A5D09A6841F288381A4E22F003020A4340
:101278009A60FFF7A1F90746B368626803F00C03A8
:10128800B3EB820FA1D0FFF797F9C01B4045F3D904
:101298000320BDE8F081022902D112F0007FDFE7C8
:1012A80012F0020FDCE7136823F00F032B431360DF
:1012B800136803F00F039D427FF479AF8BE705496C
:1012C800E0688B6823F4E05303438B6086E700BF34
:1012D800003C024000380240502F00080C0000205B
:1012E800014B1868704700BF0C0000202DE9F74338
:1012F8000268044612F001060BD0BA4B996821F433
:1013080000019960466B99683143B6FA86F676090A
:10131800996012F4002512D0B249E56BD1F88C30EF
:10132800B5F5801F23F4401308BF012643EA0503DF
:1013380016BFB5FA85F500256D09C1F88C30D702BE
:1013480010D5A848216CD0F88C30B1F5800F23F463
:10135800400343EA0103C0F88C3000F0A98100295A
:1013680008BF012512F0807F18BF0126900631D5ED
:101378009C4B9D4F1A6C42F080521A641B6C03F010
:1013880080530193019B3B6843F480733B60FFF7F4
:1013980013F980463B68D90540F18C81914F3B6F2A
:1013A80013F4407340F09181236B03F44072B2F55B
:1013B800407F8C4A40F0AF81916823F0704021F45F
:1013C800F81120F4407001439160C3F30B03116FCF
:1013D8000B4313672368DF060CD5824AD2F88C10BA
:1013E80021F08071C2F88C10D2F88C10A06B0143E8
:1013F800C2F88C10580408D57A49606ED1F890204C
:1014080022F440320243C1F89020190408D57549E6
:10141800A06ED1F8902022F440220243C1F8902017
:10142800DA0308D56F49E06ED1F8902022F4401213
:101438000243C1F890209F0308D56A49206FD1F86C
:10144800902022F440020243C1F89020580608D5A3
:101458006449606CD1F8902022F003020243C1F87D
:101468009020190608D55F49A06CD1F8902022F089
:101478000C020243C1F89020DA0508D55949E06CFE
:10148800D1F8902022F030020243C1F890209F0545
:1014980008D55449206DD1F8902022F0C0020243AB
:1014A800C1F89020580508D54E49606DD1F89020B4
:1014B80022F440720243C1F89020190508D5494921
:1014C800A06DD1F8902022F440620243C1F8902028
:1014D800DA0408D54349E06DD1F8902022F440524F
:1014E8000243C1F890209F0408D53E49206ED1F8E8
:1014F800902022F440420243C1F89020580208D5B7
:101508003849A06FD1F8902022F080620243C1F8D8
:10151800902099020CD53348E16FD0F89020B1F1B2
:10152800006F22F0006208BF01250A43C0F890202E
:1015380013F0080F18BF01255A0308D52949606F11
:10154800D1F8902022F040720243C1F890201F0287
:1015580009D52449D4F88000D1F8902022F080528F
:101568000243C1F89020580109D51E49D4F88400D7
:10157800D1F8902022F000520243C1F890201901BE
:1015880009D51849D4F88800D1F88C2022F00072C7
:101598000243C1F88C20DA0009D51249D4F88C002E
:1015A800D1F88C2022F080620243C1F88C20012EF1
:1015B80000F0B580B3F1007F00F0B180012D75D146
:1015C800084D2B6823F080532B60FEF7F5FF064685
:1015D8002B689F0000F1278121680E0306D5E36B75
:1015E80043B103E00038024000700040CD021DD531
:1015F800236CDBB9934AD2F88830D2F8880003F418
:10160800403300F0E0400343606943EA8013A06977
:1016180043EA0063C2F88830D2F88C30A06A23F419
:10162800F853013843EA0023C2F88C30880215D5F4
:10163800E36FB3F1006F11D1824AD2F88830D2F843
:10164800880003F0706300F0E0400343606943EAF8
:101658008013206A43EA0043C2F888300A0719D584
:101668007849D1F88820D1F8883002F0706203F404
:1016780040331343626943EA8213E26943EA02731F
:10168800C1F88830D1F88C30E26A23F44033134330
:10169800C1F88C306B4C236843F080532360FEF70D
:1016A8008BFF054623689B0040F1C480002009E0B9
:1016B800012657E6FEF780FFA0EB080064287FF6B6
:1016C80069AE032003B0BDE8F083226B02F44072D8
:1016D80093423FF469AE3B6F3A6F23F4407342F490
:1016E80080323A673A6F22F480323A673B673B6F41
:1016F800DA077FF559AEFEF75FFF41F28839804679
:101708003B6F9B073FF550AEFEF756FFA0EB080076
:101718004845F5D9D5E7916821F4F81154E6494EC2
:10172800336823F080633360FEF746FF074633686B
:101738001B0172D42268D70712D5636B83B9D6F818
:101748008430D6F8841003F4403301F070610B4301
:10175800616843EA8113A16843EA0173C6F88430DB
:10176800160303D5E36BB3F5801F05D0D0021ED551
:10177800236CB3F5800F1AD13249D1F88430D1F8EF
:10178800840003F4403300F0E0400343606843EA18
:101798008013E06843EA0063C1F88430D1F88C0014
:1017A800636A20F01F00013B0343C1F88C30D1016C
:1017B80011D52449D1F88430D1F8840003F070633E
:1017C80000F0E0400343606843EA8013206943EA7D
:1017D8000043C1F8843092010DD5236962681B0467
:1017E80043EA8213E26843EA0263A26843EA0273A7
:1017F800144AC2F88430134E336843F08063336070
:10180800FEF7DAFE074633681B013FF5D7AEFEF751
:10181800D3FEC01B6428F6D953E7FEF7CDFEC01BE4
:10182800642884D94DE7FEF7C7FE801B64287FF63D
:10183800CFAE46E7FEF7C0FE401B64287FF632AF06
:101848003FE700BF00380240836B1A68D36B43F44C
:101858008073D36370472DE9F043054689B00E467F
:10186800FEF7AAFE00238146082128680093019309
:1018780000F065FD044640BB296D2868090400F0A6
:1018880069FE044608BB4FF0FF33069002A928689A
:10189800029308230393302304930223059301231F
:1018A800079300F039FD286800F085FE044660B90A
:1018B800074640F22A482868436B13EA080F436B2F
:1018C80007D0190718D508248463204609B0BDE855
:1018D800F0839B0207D500F069FC08AB03EB870394
:1018E800013743F8200CFEF767FEA0EB0900013032
:1018F800E1D14FF00044E8E7436B9A0701D5022491
:10190800E2E7436B9B0601D52024DDE740F2FF5355
:101918008363009B1BBA7360019B1BBA3360D4E7D7
:101928002DE9F041164686B005461F460A4639B9E4
:10193800836B43F000638363012006B0BDE8F08148
:1019480090F83400C0B2012866D1F419E96D00237B
:101958008C42AB6304D9AB6B43F00073AB63ECE729
:101968002C6803214FEA472885F83410E362E06BBE
:101978002A4940F49570E063E86BC1632849036520
:101988004FEA9803C16404F18001FEF79EFE2868BF
:1019980001246946C36A059443F00803C3626B6C6B
:1019A800012B4FF0FF338DE808014FF0900318BF6B
:1019B80076020293022303930023049300F0ACFC05
:1019C8004FF40071286800F0BAFC48B12B6840F267
:1019D800FF529A63AB6B1843A86385F83440ABE7B2
:1019E800012F12D98223314628682B6300F0D7FCD7
:1019F8000028A2D02B6840F2FF529A63AB6B1843C1
:101A0800A863012085F8340097E7812331462868C8
:101A18002B6300F0ACFCEBE702208EE7271B0008E5
:101A28008F200008F0B5044687B015461E460F46BD
:101A380031B9836B43F000638363012007B0F0BDC5
:101A480090F83400C0B2012862D1EB18E16D002291
:101A58008B42A26304D9A36B43F00073A363EDE741
:101A6800206803232B4984F83430C262C36B43F0E7
:101A78001A03C363236CD96327491A65D9644FF4E1
:101A88000071636C012B18BF6D0200F058FC50B157
:101A9800236840F2FF529A63A36B1843A0630120A6
:101AA80084F83400CAE7012E0FD9A02329462068FC
:101AB800236300F0A4FC0546226868B140F2FF5396
:101AC8009363A06B0543A563E9E790232946206843
:101AD800236300F07CFCEEE7D36A76028032394655
:101AE80043F00803206C42F8543CB308FEF7EDFDC0
:101AF8004FF0FF3369462068039504958DE8480048
:101B0800902302930123059300F006FC284695E7ED
:101B1800022093E7511800088F200008704710B57D
:101B2800846B236B822B09D1206800F081FC28B1DB
:101B3800A36B1843A0632046FFF7F0FF23682046F5
:101B4800DA6A22F00802DA6240F2FF529A6301234D
:101B580084F8343000F066FE10BD436E9A0F0A70A8
:101B6800C3F383624A70C3F301628A70C3F3074206
:101B7800CA70C3F30722DBB20A714B71836E1A0E67
:101B88001201CA80CA8830B592B2C3F30354224303
:101B9800CA80C3F303420A72C3F30722D4094C7202
:101BA800C2F380148C72C2F34014CC72C2F30014D6
:101BB8000C7300244C73446C002C40F08380920218
:101BC8009B0002F4406203F47F730A610A691343BD
:101BD800C26E0B610B6943EA92730B61C2F3C26375
:101BE8000B75C2F302634B75C2F342538B75C2F394
:101BF8008243CB75D30B03F006030B76C2F307239E
:101C08000C7EC2F3C03222430A760A690C7E013286
:101C18000234A240012442650D7AAC408465640A0E
:101C28006243C2654FF400720266C3F380125B0020
:101C38004A7603F07E038B76C36E8A7EC3F3C014A4
:101C480003F07F0322438A76CB76036FDA0FC3F360
:101C580081500A77C3F341724A77C3F382628A7765
:101C68009A0D02F00C02CA77CA7F02430020CA7795
:101C7800C3F3405281F82020C3F3004281F82100C9
:101C880081F82220C3F3C03281F82320C3F38032C5
:101C980081F82420C3F3403281F82520C3F30032B1
:101CA80081F82620C3F3812281F82720C3F301227B
:101CB800C3F3460381F8282081F82930012381F8ED
:101CC8002A3030BD012C1AD11B0403F47C130B619C
:101CD800C36E0A691C0E42EA04220A61C3F3074272
:101CE8000C69C3F3072322430A610A69920202F5C9
:101CF80080624265C2654FF40072826594E70368AA
:101D080040F2FF529A63836B43F08053836301234D
:101D180080F83430184630BD70B5762398B0002569
:101D280004460C930AAB0A950B95079508950995F7
:101D380093E8070007AB8DE8070020680ECB00F09A
:101D480019FA2068436823F48073436000F031FA7D
:101D580022680220536843F480735360FEF732FC14
:101D68002068069500F096FB064668B9206800F0E2
:101D7800B9FB80B34FF6FF75A664069B5A1CAB42AD
:101D8800069208D14FF08076012084F83400A16BC8
:101D98000E43A66383E00021206800F0DBFB0146C8
:101DA80010B14FF08056EFE7206800F0EBFB0146DA
:101DB8000028F6D1206800F017FA0028DDDA0023A1
:101DC800636401232068ADF8163000F0F6F920BBF3
:101DD8004FF080656DE001234FF6FF75A364069B05
:101DE8005A1CAB420692CDD00021206800F0B2FB0D
:101DF80006460028C8D14FF08041206800F0C2FB99
:101E080006460028C0D10146206800F0EDF90028F8
:101E1800E5DA4300D3D50123D2E7636C032B1AD04C
:101E2800206800F0E0FB0546002842D10146206802
:101E380000F0DAF904216067206800F0D5F908217C
:101E4800A067206800F0D0F90C21E067206800F056
:101E5800CBF9C4F88000636C032B22D1636C032B8D
:101E68002ED10421206800F0BFF90DA9000DE0640F
:101E78002046FFF772FE226D00232068120400F04E
:101E8800F1FA0546A8B904F1100393E80700231DE9
:101E98008DE8070020680ECB00F06CF9284618B0D2
:101EA80070BD0DF11601206800F0C8FB054600283A
:101EB800D4D0012084F83400A36B1D43A563EEE75A
:101EC800BDF8161020682165090400F0A1FB05463D
:101ED8000028EED10146206800F086F904216066EA
:101EE800206800F081F90821A066206800F07CF9DC
:101EF8000C21E066206800F077F92067B1E710B59B
:101F08000446A0B190F8343003F0FF0213B9027709
:101F180000F03EFE0323204684F83430FFF7FCFE31
:101F280000200123A063206384F8343010BD012011
:101F380010BD436C0B60836C4B60C36C8B60036D8E
:101F4800CB60436D0B61836D4B61C36D8B61036E19
:101F58000020CB617047032370B580F834308AB015
:101F6800436C04460E46032B02D0B1F5805F03D1C3
:101F7800A36B43F0805356E0B1F5006F2DD10021DB
:101F880000680491059100F02FF9800120D404A97C
:101F98002046FFF760FC60B9059B59031AD5216DEF
:101FA8002068090400F0D6FA18B90221206800F068
:101FB800C9FBA36B1843A063A56B002D35D023681C
:101FC80040F2FF5201209A6384F834000AB070BDD1
:101FD8003046EEE74FF08060EBE709BB00680491FC
:101FE800059100F001F9820114D404A92046FFF7F5
:101FF80032FC60B9059BDB030FD5216D206809040D
:1020080000F0A8FA18B90146206800F09BFBA16B04
:102018000843D0E74FF40060F9E74FF08060F6E737
:10202800836B43F00063A363C6E763680796049372
:10203800A3680593E368069363690893A369099302
:102048000AAB13E9070004AB8DE8070020680ECB44
:1020580000F090F80123284684F83430B6E7016D83
:1020680010B509040446006800F03CFB014628B995
:10207800206800F0B9F8C0F3432010BDA36B00201E
:102088001943A163F7E710B5846BFEF75BFB0228E1
:1020980026D0E36B5B6D012B03D0236C5B6D012BAA
:1020A8001BD1236840F2FF5220469A63DA6B22F470
:1020B8009D72DA63A36B43F08043A363FFF7CFFFFE
:1020C8000538C0B2012805D8206800F0B1F9A36B23
:1020D8001843A063012384F834302046FFF71EFD1F
:1020E80010BD0000114B4FF4FA521B68B3FBF2F21B
:1020F80041F28833534313F1FF3314D3426B12F088
:10210800450FF8D0436B5B0703D504238363184658
:102118007047436B13F0010301D00123F6E740F247
:10212800FF528263F3E74FF00043F0E70C00002012
:102138000F4B4FF4FA521B68B3FBF2F241F28833AB
:10214800534313F1FF330FD3426B12F0450FF8D00E
:10215800436B13F0040303D00423836318467047CA
:1021680040F2FF528263F9E74FF00040704700BF2A
:102178000C00002084B010B503AC84E80E0004996C
:10218800039B42680B43059922F4FD420B430699D1
:1021980022F07F020B4307990B4308990B43BDE8D4
:1021A8001040134304B0436000207047D0F880000B
:1021B80070470323036000207047006800F00300A5
:1021C80070470B6810B583608C684B68C2682343FE
:1021D800CC6822F47F620969234322F00F020B4383
:1021E8001343C360002010BD143082B000230144A3
:1021F80001930191019B186802B07047444B10B5D8
:102208001B684FF4FA54B3FBF4F35A43002A49D03D
:10221800436B013A13F0450FF8D0436B5C0703D5C5
:1022280004238363184610BD436B13F0010301D0E8
:102238000123F6E70269D2B2914236D140F2FF5249
:1022480019468263FFF7D0FF324B0340002BE9D0D9
:1022580000282CDB42002DD484002DD4C1002DD4BD
:1022680002012ED444012FD4C10130D4020231D44A
:10227800440232D4810233D4C20234D4440335D464
:10228800810336D4C20337D4040438D4410439D482
:1022980082043AD410F0080F14BF4FF400034FF42F
:1022A8008033BFE74FF00043BCE70123BAE74FF0A4
:1022B8000073B7E74023B5E78023B3E74FF4807393
:1022C800B0E74FF40073ADE74FF48063AAE74FF42B
:1022D8000063A7E74FF48053A4E74FF40053A1E746
:1022E8004FF480439EE74FF400439BE74FF40033DD
:1022F80098E74FF4802395E74FF4002392E74FF4D3
:1023080080138FE74FF400138CE74FF4800389E7BD
:102318000C00002008E0FFFD0B6810B543624B6815
:10232800CC6883628B68C26A23430C69496922F0CE
:10233800F70223430B431343C362002010BD30B59B
:10234800402387B01024054603930023019101A977
:1023580004934FF4806302940593FFF732FF41F230
:10236800883221462846FFF749FF07B030BD30B50F
:10237800402387B01124054603930023019101A946
:1023880004934FF4806302940593FFF71AFF41F218
:10239800883221462846FFF731FF07B030BD30B5F7
:1023A800402387B01224054603930023019101A915
:1023B80004934FF4806302940593FFF702FF41F200
:1023C800883221462846FFF719FF07B030BD30B5DF
:1023D800402387B01824054603930023019101A9DF
:1023E80004934FF4806302940593FFF7EAFE41F2E9
:1023F800883221462846FFF701FF07B030BD30B5C7
:10240800402387B01924054603930023019101A9AD
:1024180004934FF4806302940593FFF7D2FE41F2D0
:10242800883221462846FFF7E9FE07B030BD000094
:1024380030B5002387B00C2440220193054604934D
:102448004FF4806301A9039205930294FFF7B9FE44
:10245800034A21462846FFF7D1FE07B030BD00BF2A
:1024680000E1F50530B5402387B0072405460393FE
:10247800002301A9019204934FF480630294059309
:10248800FFF79FFE41F2883221462846FFF7B6FE45
:1024980007B030BD10B5002386B00446019301A9EA
:1024A8000293039304934FF480630593FFF789FE27
:1024B8000B4B4FF4FA521B68B3FBF2F241F288332C
:1024C800534313F1FF3308D3626B1206F9D540F278
:1024D800FF530020A36306B010BD4FF00040FAE799
:1024E8000C00002010B54FF4D57386B00446019354
:1024F800082301A9029340230393002304934FF474
:1025080080630593FFF75DFE114B4FF4FA521B6889
:10251800B3FBF2F241F28833534313F1FF3314D380
:10252800626B12F0450FF8D0626B12F0040204D00F
:1025380040230420A36306B010BD606B10F0400078
:10254800F9D040231046A363F5E74FF00040F2E7C7
:102558000C00002030B5402387B03724054603938C
:102568000023019101A904934FF480630294059319
:10257800FFF727FE41F2883221462846FFF73EFE44
:1025880007B030BD10B5292386B041F0004104469C
:102598000293402341F4801103930023019101A980
:1025A80004934FF480630593FFF70BFE2046FFF773
:1025B800BFFD06B010BD30B5002387B033244022DC
:1025C8000193054604934FF4806301A90392059390
:1025D8000294FFF7F6FD41F2883221462846FFF7BC
:1025E8000DFE07B030BD10B5002386B002220446A8
:1025F800019301A90292C02204934FF480630392CD
:102608000593FFF7DEFD2046FFF76CFD06B010BD11
:1026180010B5092386B004460293C023019101A98D
:102628000393002304934FF480630593FFF7C9FDD8
:102638002046FFF757FD06B010BD000030B5002357
:1026480087B003220D46019301A902924022049308
:102658004FF48063039204460593FFF7B2FD204BC5
:102668004FF4FA521B68B3FBF2F241F2883353433A
:1026780013F1FF332BD3626B12F0450FF8D0636B65
:102688005A0703D50420A06307B030BD616B11F071
:10269800010101D00120F6E72369DBB2032B19D130
:1026A80040F2FF532046A363FFF79EFD10F46043FA
:1026B80003D1000C28801846E6E743040CD410F434
:1026C800004F14BF4FF480504FF48030DCE74FF0D8
:1026D8000040D9E70120D7E74FF40050D4E700BF06
:1026E8000C00002030B5402387B00D240546039325
:1026F8000023019101A904934FF480630294059388
:10270800FFF75FFD41F2883221462846FFF776FD44
:1027180007B030BD30B5402387B006240546039383
:102728000023019101A904934FF480630294059357
:10273800FFF747FD41F2883221462846FFF75EFD44
:1027480007B030BDFFF7E6BF0F4B30B55D7A05F037
:10275800FF04B5B95D7A5C555D7A03EB8505686061
:10276800587A184402725A7AD2B2501C3032C0B227
:1027780058723A230A7020464B702F23CC708B7006
:1027880030BD012030BD00BF2C0000200022FFF723
:10279800DBBF0000012307B58DF807309DF807302F
:1027A800012B0ED10848FFF7AAFB38B94FF4006196
:1027B8000548FFF7D0FB003018BF012003B05DF8D3
:1027C80004FB0220FAE700BFAC04002008B513465A
:1027D8000A4601460348FFF7A3F8003018BF012056
:1027E80008BD00BFAC04002008B513460A460146E0
:1027F8000348FFF717F9003018BF012008BD00BFD4
:10280800AC04002008B50348FFF729FC043818BFBA
:10281800012008BDAC04002001460148FFF789BB30
:10282800AC04002008B500F051F908BD08B503490B
:102838000348FFF7ABFF034B187008BD45000020A5
:102848003C2F0008440000202E4B1A6C42F08052A6
:1028580010B51A64B8B01B6C022407A803F08053A3
:102868000093009B284B1A6842F440421A601B6888
:10287800079403F440430D9411940193019B0123A1
:102888000A9310230B9300230E9308230F93D82346
:10289800109309231293FEF7C3FA00B1FEE7FEF77F
:1028A80087FA00B1FEE70F230490072102A80293DC
:1028B8004FF4A053039405934FF480530693FEF707
:1028C80071FC00B1FEE74FF420033390349014A854
:1028D8001493FEF70BFD044600B1FEE7FEF700FD7A
:1028E8004FF47A73B0FBF3F0FDF7C8FE0420FDF750
:1028F800DBFE224621464FF0FF30FDF787FE38B059
:1029080010BD00BF003802400070004007B5FDF759
:102918003BFEFFF799FF144B14481A6B42F0040270
:102928001A631A6B02F004020092009A1A6B42F0C2
:1029380008021A631B6B03F008030193019B0C4BFD
:102948000360FEF7F9F800B1FEE70A4B0A4A58603F
:102958001A604FF48062D8609A600A221861586140
:102968009A61FFF763FFFEE7003802403005002058
:1029780000100550AC040020002C014010B50123C4
:10298800054C2370FFF73EFF234618B9227802F062
:10299800FE022270187810BD0800002010B501232F
:1029A800044C2370FFF7F6FE10B9FFF7E7FF20701D
:1029B800207810BD08000020FFF7E0BF70B508467A
:1029C800154C1146002222601A46FFF7FFFE08B197
:1029D800012070BDFDF7F0FD47F22F55064623682C
:1029E8009BB12368002BF3D000232360FDF7E4FD9F
:1029F80047F22F540546FDF7DFFD401BA042E7D8FC
:102A0800FFF700FF0028F6D170BDFDF7D5FD801B4C
:102A1800A842E4D9E5E700BF3800002070B50846B1
:102A2800154C1146002222601A46FFF7DDFE08B158
:102A3800012070BDFDF7C0FD47F22F5506462368FB
:102A48009BB12368002BF3D000232360FDF7B4FD6E
:102A580047F22F540546FDF7AFFD401BA042E7D8CB
:102A6800FFF7D0FE0028F6D170BDFDF7A5FD801B4D
:102A7800A842E4D9E5E700BF3C000020124B10B59E
:102A88001B7888B01446DB071BD4032903D8DFE87A
:102A980001F010050B12042008B010BD6846FFF7BE
:102AA800BBFE069B236004E06846FFF7B5FE079B64
:102AB80023800020F0E76846FFF7AEFE079B5B0A1D
:102AC800F0E70320E8E700BF080000200122014BDF
:102AD8001A60704738000020214B07B51A6C032094
:102AE80042F080521A641A6C02F080520092009AE6
:102AF8005A6C42F480425A645B6C03F4804301933D
:102B0800019BFDF771FD00226FF00B001146FDF7E8
:102B18007DFD00226FF00A001146FDF777FD0022C7
:102B28006FF009001146FDF771FD00226FF00400F7
:102B38001146FDF76BFD00226FF003001146FDF70B
:102B480065FD00226FF001001146FDF75FFD0022D0
:102B58004FF0FF301146FDF759FD03B05DF804FB57
:102B680000380240026882B0074B9A4209D1074BED
:102B78005A6B42F002025A635B6B03F00203019343
:102B8800019B02B0704700BF00100550003802409A
:102B98000268164B9A42F0B587B024D103F5863304
:102BA8000227002603255A6C0C2401A9104842F478
:102BB80000625A645B6C029703F400630396049501
:102BC8000093009B4FF4F85305940193FDF7BCFD67
:102BD8000423084802970DEB03010193039604951B
:102BE8000594FDF7B1FD07B0F0BD00BF002C014012
:102BF80000080240000C02407047FEE7FEE7FEE7CF
:102C0800FEE770477047704708B5FDF7C9FCBDE897
:102C18000840FDF756BD00000F490020D1F8883064
:102C280043F47003C1F888300C4B1A6842F0010273
:102C38001A6098601A6822F0847222F480321A604E
:102C4800074A5A601A6822F480221A60D8604FF046
:102C580000638B60704700BF00ED00E00038024061
:102C680010300024DFF834D0002103E00C4B5B580F
:102C7800435004310B480C4B42189A42F6D30B4A86
:102C880002E0002342F8043B094B9A42F9D3FFF7CC
:102C9800C3FF00F011F8FFF739FE70470000082065
:102CA800702F0008000000201000002010000020F5
:102CB80084050020FEE7000070B50D4E0D4CA41BE6
:102CC800A4100025A54209D10B4E0C4C00F018F8B1
:102CD800A41BA4100025A54205D170BD56F82530C7
:102CE80098470135EEE756F8253098470135F2E761
:102CF800682F0008682F0008682F00086C2F00084C
:102D0800F8B500BFF8BC08BC9E467047F8B500BFD0
:082D1800F8BC08BC9E467047A0
:102D20000002010204040304070504040001027701
:102D3000000102031104052131061241510761719E
:102D40001322328108144291A1B1C109233352F0F8
:102D5000156272D10A162434E125F11718191A26C2
:102D60002728292A35363738393A434445464748D3
:102D7000494A535455565758595A636465666768AB
:102D8000696A737475767778797A828384858687A1
:102D900088898A92939495969798999AA2A3A4A5C4
:102DA000A6A7A8A9AAB2B3B4B5B6B7B8B9BAC2C3F0
:102DB000C4C5C6C7C8C9CAD2D3D4D5D6D7D8D9DA1C
:102DC000E2E3E4E5E6E7E8E9EAF2F3F4F5F6F7F83A
:102DD000F9FA0002010303020403050504040000DC
:102DE000017D010203000411051221314106135136
:102DF0006107227114328191A1082342B1C1155299
:102E0000D1F02433627282090A161718191A25267E
:102E10002728292A3435363738393A434445464736
:102E200048494A535455565758595A63646566671A
:102E300068696A737475767778797A83848586870A
:102E400088898A92939495969798999AA2A3A4A513
:102E5000A6A7A8A9AAB2B3B4B5B6B7B8B9BAC2C33F
:102E6000C4C5C6C7C8C9CAD2D3D4D5D6D7D8D9DA6B
:102E7000E1E2E3E4E5E6E7E8E9EAF1F2F3F4F5F6A6
:102E8000F7F8F9FA1112182F6363636312151A42E7
:102E900063636363181A3863636363632F42636316
:102EA00063636363636363636363636363636363F2
:102EB00063636363636363636363636363636363E2
:102EC000636363630003010101010101010101006A
:102ED00000000000000102030405060708090A0BB0
:102EE00000010501010101010100000000000000D6
:102EF000000102030405060708090A0B100B0A105B
:102F00001828333D0C0C0E131A3A3C370E0D1018CE
:102F1000283945380E11161D3357503E12162538E4
:102F2000446D674D182337405168715C31404E57EE
:102F300067797865485C5F6270646763A5290008FB
:102F4000C1290008C5290008252A0008852A00088B
:102F50000000000000000000010203040607080949
:082F600008D3FF7F010000000F
:042F68001D0200083E
:042F6C00F90100085F
:102F70000100000010000000010000000024F40027
:0400000508002C6D56
:00000001FF
