:020000040800F2
:1000000000000820C93A0008693A00086B3A000865
:100010006D3A00086F3A0008713A000800000000CD
:10002000000000000000000000000000733A00081B
:10003000753A000800000000773A0008793A000895
:10004000193B0008193B0008193B0008193B000840
:10005000193B0008193B0008193B0008193B000830
:10006000193B0008193B0008193B0008193B000820
:10007000193B0008193B0008193B0008193B000810
:10008000193B0008193B0008193B0008193B000800
:10009000193B0008193B0008193B0008193B0008F0
:1000A000193B0008193B0008193B0008193B0008E0
:1000B000193B0008193B0008193B0008193B0008D0
:1000C000193B0008193B0008193B0008193B0008C0
:1000D000193B0008193B0008193B0008193B0008B0
:1000E000193B0008193B0008193B0008193B0008A0
:1000F000193B0008193B0008193B0008193B000890
:10010000193B0008193B0008193B0008193B00087F
:10011000193B0008193B0008193B0008193B00086F
:10012000193B0008193B0008193B0008193B00085F
:10013000193B0008193B0008193B0008193B00084F
:10014000193B0008193B0008193B0008193B00083F
:10015000193B0008193B0008193B0008193B00082F
:10016000193B0008193B0008193B0008193B00081F
:10017000193B0008193B0008193B0008000000006B
:10018000193B0008193B0008193B0008193B0008FF
:10019000193B0008193B0008193B0008193B0008EF
:1001A000193B0008193B0008193B0008193B0008DF
:1001B000193B0008193B0008193B0008193B0008CF
:1001C000193B0008193B000800000000193B00081B
:1001D000193B0008193B0008193B0008193B0008AF
:1001E000193B0008193B0008193B0008193B00089F
:0801F000193B0008193B00084F
:1001F80010B5054C237833B9044B13B10448AFF359
:1002080000800123237010BD1000002000000000B2
:10021800743B000808B5034B1BB103490348AFF30F
:10022800008008BD0000000014000020743B000896
:1002380053B94AB9002908BF00281CBF4FF0FF3145
:100248004FF0FF3000F07AB9ADF1080C6DE904CE3B
:1002580000F006F8DDF804E0DDE9022304B0704799
:100268002DE9F0478C460D460446089E002B51D1D7
:100278008A4217466DD9B2FA82FEBEF1000F0BD042
:10028800CEF1200C01FA0EF520FA0CFC02FA0EF75A
:100298004CEA050C00FA0EF44FEA174A250CBCFB91
:1002A800FAF81FFA87F90AFB18CC45EA0C4508FB4F
:1002B80009F3AB420AD9ED1908F1FF3280F0238126
:1002C800AB4240F22081A8F102083D44ED1AA4B2E5
:1002D800B5FBFAF00AFB105544EA054400FB09F99E
:1002E800A14509D9E41900F1FF3380F00A81A1453D
:1002F80040F2078102383C44A4EB090440EA084074
:100308000021002E61D024FA0EF4002334607360BB
:10031800BDE8F0878B4207D9002E54D0002186E82B
:1003280021000846BDE8F087B3FA83F1002940F0C0
:100338008E80AB4202D3824200F2FA80841A65EBC7
:1003480003050120AC46002E3FD086E81010BDE81A
:10035800F08712B90127B7FBF2F7B7FA87FEBEF1AB
:10036800000F34D1EB1B3A0C1FFA87FC0121B3FBB9
:10037800F2F8250C02FB183345EA03450CFB08F399
:10038800AB4207D9ED1908F1FF3002D2AB4200F2B7
:10039800D1808046ED1AA3B2B5FBF2F002FB1055EE
:1003A80043EA05440CFB00FCA44507D9E41900F115
:1003B800FF3302D2A44500F2B8801846A4EB0C041F
:1003C80040EA08409DE731463046BDE8F087CEF167
:1003D800200405FA0EF307FA0EF720FA04F83A0C8F
:1003E80025FA04F448EA0308B4FBF2F14FEA184589
:1003F80002FB11441FFA87FC45EA044501FB0CF394
:10040800AB4200FA0EF409D9ED1901F1FF3080F082
:100418008A80AB4240F2878002393D44EB1A1FFACA
:1004280088F5B3FBF2F002FB103345EA034500FB05
:100438000CF3AB4207D9ED1900F1FF386FD2AB428C
:100448006DD902383D44EB1A40EA01418FE7C1F10A
:10045800200722FA07F88B4005FA01F448EA03035B
:1004680020FA07FE4FEA134CFD404EEA040EB5FB96
:10047800FCF94FEA1E440CFB19551FFA83F844EAAD
:10048800054509FB08F4AC4202FA01F200FA01FA48
:1004980008D9ED1809F1FF3043D2AC4241D9A9F18E
:1004A80002091D442D1B1FFA8EFEB5FBFCF00CFB48
:1004B80010554EEA054400FB08F8A04507D9E41892
:1004C80000F1FF3529D2A04527D902381C4440EA5B
:1004D8000940A4EB0804A0FB02894C45C6464D46DA
:1004E80015D312D056B1BAEB0E0364EB050404FA27
:1004F80007F7CB401F43CC40376074600021BDE84C
:10050800F0871846F8E69046E0E6C245EAD2B8EB2E
:10051800020E69EB03050138E4E72846D7E74046B1
:1005280091E78146BEE7014678E702383C4445E753
:10053800084608E7A8F102083D442BE7704700BFCA
:1005480038B50E4B05460E4A18784FF47A73B3FB4C
:10055800F0F31068B0FBF3F000F09AF8044658B9CD
:100568000F2D09D8024629464FF0FF3000F058F801
:10057800044B20461D6038BD012038BD0000002016
:100588000C0000200400002008B5094B03201A685D
:1005980042F400721A601A6842F480721A6000F01D
:1005A8002DF80020FFF7CCFF03F012F9002008BD5A
:1005B800003C0240034A044B11681B780B4413604B
:1005C800704700BF3800002000000020014B186869
:1005D800704700BF3800002038B50446FFF7F6FF23
:1005E8000546631C1EBF044B1B78E418FFF7EEFF9B
:1005F800401B8442FAD838BD00000020074A000298
:10060800D36800F4E06023F4E0631B041B0C43F0A0
:10061800BF6343F400330343D360704700ED00E049
:10062800194B30B5DC68C4F30224C4F10703251D57
:10063800042B28BF0423062D4FF001058CBF033C73
:10064800002405FA03F3002803F1FF3301EA03014C
:1006580001FA04F105FA04F404F1FF3402EA040291
:1006680042EA01024FEA021205DA00F00F00D2B2A4
:10067800064B1A5430BD00F16040D2B200F561401B
:1006880080F8002330BD00BF00ED00E014ED00E06D
:100698000138B0F1807F0AD2064BF021064A586033
:1006A800002082F82310072298601A607047012002
:1006B800704700BF10E000E000ED00E02DE9F04FCA
:1006C8000B6885B0DFF8C081019300236C4ADFF81E
:1006D800BC914FF0010E019C0EFA03FE0EEA0406CF
:1006E800B64540F0B3804C6824F01007022F16D1AD
:1006F8004FEAD30A03F0070B4FF00F0C00EB8A0AFE
:100708004FEA8B0BDAF820500CFA0BFC25EA0C0C9C
:100718000D6905FA0BF545EA0C05CAF820504FEAB1
:10072800430A0325D0F800B004F0030C05FA0AF5D3
:10073800013F0CFA0AFCED43012F0BEA050B4CEACA
:100748000B0CC0F800C011D8876807EA050BCF6802
:1007580007FA0AFC4CEA0B078760476827EA0E0E7F
:10076800C4F300179F4047EA0E074760C7683D403B
:100778008F6807FA0AF73D43C560E50066D5D8F8E3
:10078800445023F0030703F0030E4FF00F0C45F419
:10079800804507F180474FEA8E0EC8F8445007F5A8
:1007A8009C37D8F8445005F480450395039D0CFA0E
:1007B8000EF5D7F808A02AEA050C324DA8424CD00D
:1007C80005F58065A8424AD005F58065A84248D05D
:1007D80005F58065A84246D005F58065A84244D055
:1007E800484544D005F50065A84242D005F5806526
:1007F800A84240D005F58065A8423ED005F5806541
:10080800A84214BF0A25092505FA0EF514F4803FFD
:1008180045EA0C05BD606FEA060715680CBF3D4048
:10082800354314F4003F156055680CBF3D4035430F
:1008380014F4801F556095680CBF3D403543A402F1
:100848009560D56854BF3D403543D5600133102BC2
:100858007FF43FAF05B0BDE8F08F0025D4E7012550
:10086800D2E70225D0E70325CEE70425CCE7052506
:10087800CAE70625C8E70725C6E70825C4E700BF75
:10088800003C0140000002400038024000140240D1
:100898000369194214BF0120002070470AB1816121
:1008A80070470904FBE7F0B500F1100E0746002574
:1008B80017F8014B6619B6F5807F0FD80D44A7EBE2
:1008C800000C6CB977453546F2D18C551E6023462D
:1008D8000D780126085DA8B11B1B08E00120F0BDBA
:1008E80005F801CB013CECE742F8240001340F5D28
:1008F8001819BD42F8D006FA05F38342EED9430031
:100908000135E7E7F0BDF0B5ADF2145D0D460446DC
:1009180043AE02AF01AB32463946FFF7C4FF30B9E8
:10092800DDF804E004F110020346734502D10DF22C
:10093800145DF0BD12F8011B0B290AD856F82340A4
:1009480005EB810CCCF80C40FC5C0133013C6C5489
:10095800EBE70120EBE770B504680B4690B004F5AF
:10096800F8618A4205D104F5FB644BB9002010B048
:1009780070BD04F5FC618A4228D104F5FF64F4E7F0
:1009880001AD18462946FFF7BEFF0028EFD16FF0EA
:10099800F02328460C21236063606B1890F83820F8
:1009A800023990F8346013F8013C08381B0203F44C
:1009B80070631A436B5C1B0203F47063334343EAAE
:1009C800024344F8043D0029E7D1CFE70120CEE7F0
:1009D8002DE9F0410468ADF6380D0F4604F5A06323
:1009E8009A4207D104F244645FB900200DF6380D2D
:1009F800BDE8F08104F5CC639A4252D104F2A474A4
:100A0800F2E70DF2344501AE6B4638462A463146C8
:100A1800FFF749FF0028E9D107F11001DDF800E0F0
:100A28004FF00A0C42AF70452ED16FF0F02342A967
:100A3800A22023600D466360A36003F1D13303F164
:100A48002E23E36003F10213236103F102136361B0
:100A580003F10213A3612B1891F82823023891F8A7
:100A6800246313F8013C08391B0203F470631A432A
:100A78002B5C1B0203F47063334343EA024344F8DC
:100A8800043D0028E7D1B0E711F8013B5BB1F02B3A
:100A980015D01A0903F00F03013B1CFB0233A12BED
:100AA80002D90120A2E7A02355F8202007EB8308EC
:100AB800C8F8A420325C0130013AFA54B3E7A12304
:100AC800F2E70000F8B50446002800F00F8190F81E
:100AD800493003F0FF021BB980F8482002F090FE6D
:100AE80022680223894984F8493002F55B70136B48
:100AF80002F5577543F001031363136823F00103EC
:100B08001360136B23F07E031363136B23F4C0533A
:100B18001363136B43F400531363136B43F4804361
:100B28001363936B43F060039363794BA363794B2F
:100B3800E3630023236463648B7B0439CE7C1B044A
:100B480043EA06630E7C33434E7C43EA062340F8AF
:100B58000439A842F0D1704B02F562766F4902F56C
:100B68005E77C2F87833A3F104330D463046C2F8F5
:100B78007433A3F10433C2F87033AB7B043D95F8AA
:100B880013E01B0443EA0E6395F810E043EA0E03F2
:100B980095F811E043EA0E2346F80439BE42ECD139
:100BA800D2F82C3402F585651B0C1B0443F47A43F8
:100BB80043F0F903C2F82C3491F8AE30043991F8B7
:100BC800B3601B0443EA066391F8B060334391F8BD
:100BD800B16043EA062345F804398542ECD1D2F8DE
:100BE8002C3402F58B654E489BB243F04073C2F833
:100BF8002C34D2F83C340340C2F83C340123C2F808
:100C080038344FF00133C2F83434C2F83034D2F8F3
:100C18003C14444B89B241F08071C2F83C14D2F8BC
:100C28004814014041F4306141F00A01C2F8481407
:100C3800C2F84434A3F10433C2F84034D2F848145B
:100C480089B241F00071C2F84814D2F858343649D4
:100C5800034002F59F6043F4EE4343F00203C2F8F9
:100C68005834324BC2F85434314BC2F85034314BFB
:100C7800C2F84C34D2F858349BB243F08073C2F8AF
:100C8800583491F8B030043991F8B5601B0443EA40
:100C9800066391F8B260334391F8B36043EA0623E0
:100CA80040F80439A842ECD102F5A0621B4920465D
:100CB800FFF78EFEB8B9226820461B4902F5CC62C0
:100CC800FFF786FE78B922682046104902F5F862D7
:100CD800FFF741FE38B922682046174902F5FC6241
:100CE800FFF739FE20B10120E064F8BD0120F8BD0E
:100CF8002268536843F4807353600123E0612062E3
:100D080084F84930E0642065F8BD00BF4C3D000818
:100D1800683D0008F03C000808090A0B3E3C000842
:100D28000000FFFF060708098C3B000804040001C7
:100D38000304070501020404303D0008194B37B5C8
:100D48001A6C194C42F080521A641B6C03F08053E1
:100D58000193019B236843F480332360FFF736FC3B
:100D680005466368DA030CD5236843F4003323602F
:100D7800FFF72CFC0C4C054663689B030AD5002042
:100D880006E0FFF723FC401BB0F57A7FE9D9032082
:100D980003B030BDFFF71AFC401BB0F57A7FEBD9E2
:100DA800F5E700BF00380240007000402DE9F3412C
:100DB800044618B9012002B0BDE8F0810368D807DD
:100DC80010D4236899075ED42368190700F1A3801B
:100DD80023685A0700F1C480A269002A40F02E81D6
:100DE8000020E8E7934B9A6802F00C02042A07D027
:100DF8009A6802F00C02082A0AD15B685A0207D5E1
:100E08008C4B1B689B03DCD56368002BD9D1D1E7D9
:100E18006368884DB3F5803F11D12B6843F4803364
:100E28002B60FFF7D3FB834D06462B689F03C8D47E
:100E3800FFF7CCFB801B6428F7D90320BBE79BB9DD
:100E48002B6823F480332B602B6823F480232B60DA
:100E5800FFF7BCFB06462B689803B2D5FFF7B6FB35
:100E6800801B6428F7D9E8E7B3F5A02F2B6803D1D6
:100E780043F480232B60D0E723F480332B602B6866
:100E880023F48023CCE76B4B9A6812F00C0F07D041
:100E98009A6802F00C02082A11D15B6859020ED434
:100EA800644B1A68920702D5E268012A82D11A684F
:100EB800216922F0F80242EAC1021A6084E7E36875
:100EC8005C4DBBB12B6843F001032B60FFF77EFB41
:100ED80006462B689F0707D52B68226923F0F8037D
:100EE80043EAC2032B606FE7FFF770FB801B022801
:100EF800EFD9A2E72B6823F001032B60FFF766FB0D
:100F080006462B6898077FF55FAFFFF75FFB801BEE
:100F18000228F6D991E76369464D83B16B6F43F0B8
:100F280001036B67FFF752FB06466B6F9B073FF5A4
:100F38004FAFFFF74BFB801B0228F6D97DE76B6F9D
:100F480023F001036B67FFF741FB06466B6F9F07B2
:100F58007FF53EAFFFF73AFB801B0228F6D96CE716
:100F6800344B1A6CD00027D41A6C012642F08052F8
:100F78001A641B6C03F080530193019B2E4D2B6860
:100F8800D9051BD5A3682B4D012B27D12B6F43F017
:100F980001032B6741F28835FFF718FB254F804680
:100FA8003B6F9B073FD5002E3FF416AF214A136CC9
:100FB80023F0805313640FE70026DFE72B6843F420
:100FC80080732B60FFF702FB07462B68DA05D9D43C
:100FD800FFF7FCFAC01B6428F7D92EE7ABB92B6FD3
:100FE80041F2883823F001032B672B6F23F00403A9
:100FF8002B67FFF7EBFA07462B6F9807D3D5FFF758
:10100800E5FAC01B4045F7D917E7052B2B6F03D12D
:1010180043F004032B67B9E723F001032B672B6F19
:1010280023F00403B5E7FFF7D1FAA0EB0800A842C4
:10103800B6D902E70038024000700040244DAB6882
:1010480003F00C03082B3FF4B5AE2B68022A23F0FB
:1010580080732B602FD1FFF7B9FA06462B689901E8
:1010680023D4226AE3691343626A43EA8213E26A79
:1010780043EA0263226B43EA0273A26A144C5208E1
:10108800013A43EA02436B602B6843F080732B609C
:10109800FFF79CFA054623689A013FF5A1AEFFF7D2
:1010A80095FA401B0228F6D9C7E6FFF78FFA801B8E
:1010B8000228D3D9C1E6FFF789FA04462B689B01B9
:1010C8007FF58EAEFFF782FA001B0228F6D9B4E648
:1010D80000380240134908B58B6803F00C03042B51
:1010E80003D0082B03D0104808BD104808BD4A6833
:1010F8004B68496802F03F0213F48003C1F388117A
:101108001ABF0A4800230848A1FB0001FFF790F81E
:10111800044B5B68C3F3014301335B00B0FBF3F09E
:1011280008BD00BF003802400024F40040787D016B
:101138002DE9F0410D46044610B90120BDE8F081C3
:10114800464A136803F00F038B4228D321688F07A0
:1011580030D4C80743D4414A136803F00F039D42B3
:1011680067D32268510770D4130707D53C4A216911
:10117800936823F4604343EAC1039360FFF7AAFF2F
:10118800374B384A9B68C3F30313D35CD840364BBC
:1011980018600020FFF7D4F90020BDE8F08113683B
:1011A80023F00F030B431360136803F00F039942F6
:1011B800C3D1CBE711F0040F294B03D09A6842F44E
:1011C800E0529A600E0703D59A6842F460429A602A
:1011D8009A68A06822F0F00202439A60B9E7616851
:1011E8001F4B01291A681CD112F4003FA5D09A6838
:1011F80041F288381A4E22F003020A439A60FFF738
:10120800E5F90746B368626803F00C03B3EB820F95
:10121800A1D0FFF7DBF9C01B4045F3D90320BDE897
:10122800F081022902D112F0007FDFE712F0020FED
:10123800DCE7136823F00F032B431360136803F0F4
:101248000F039D427FF479AF8BE70549E0688B680F
:1012580023F4E05303438B6086E700BF003C024061
:1012680000380240D03D00080C000020044B054A1D
:101278009B68C3F38223D35C034A1068D840704745
:1012880000380240E03D00080C000020044B054AED
:101298009B68C3F34233D35C034A1068D840704755
:1012A80000380240E03D00080C0000202DE9F7431B
:1012B8000268044612F001060BD0BA4B996821F473
:1012C80000019960466B99683143B6FA86F676094B
:1012D800996012F4002512D0B249E56BD1F88C3030
:1012E800B5F5801F23F4401308BF012643EA050320
:1012F80016BFB5FA85F500256D09C1F88C30D702FF
:1013080010D5A848216CD0F88C30B1F5800F23F4A3
:10131800400343EA0103C0F88C3000F0A98100299A
:1013280008BF012512F0807F18BF0126900631D52D
:101338009C4B9D4F1A6C42F080521A641B6C03F050
:1013480080530193019B3B6843F480733B60FFF734
:101358003DF980463B68D90540F18C81914F3B6F40
:1013680013F4407340F09181236B03F44072B2F59B
:10137800407F8C4A40F0AF81916823F0704021F49F
:10138800F81120F4407001439160C3F30B03116F0F
:101398000B4313672368DF060CD5824AD2F88C10FA
:1013A80021F08071C2F88C10D2F88C10A06B014328
:1013B800C2F88C10580408D57A49606ED1F890208C
:1013C80022F440320243C1F89020190408D5754927
:1013D800A06ED1F8902022F440220243C1F8902058
:1013E800DA0308D56F49E06ED1F8902022F4401254
:1013F8000243C1F890209F0308D56A49206FD1F8AD
:10140800902022F440020243C1F89020580608D5E3
:101418006449606CD1F8902022F003020243C1F8BD
:101428009020190608D55F49A06CD1F8902022F0C9
:101438000C020243C1F89020DA0508D55949E06C3E
:10144800D1F8902022F030020243C1F890209F0585
:1014580008D55449206DD1F8902022F0C0020243EB
:10146800C1F89020580508D54E49606DD1F89020F4
:1014780022F440720243C1F89020190508D5494961
:10148800A06DD1F8902022F440620243C1F8902068
:10149800DA0408D54349E06DD1F8902022F440528F
:1014A8000243C1F890209F0408D53E49206ED1F828
:1014B800902022F440420243C1F89020580208D5F7
:1014C8003849A06FD1F8902022F080620243C1F819
:1014D800902099020CD53348E16FD0F89020B1F1F3
:1014E800006F22F0006208BF01250A43C0F890206F
:1014F80013F0080F18BF01255A0308D52949606F52
:10150800D1F8902022F040720243C1F890201F02C7
:1015180009D52449D4F88000D1F8902022F08052CF
:101528000243C1F89020580109D51E49D4F8840017
:10153800D1F8902022F000520243C1F890201901FE
:1015480009D51849D4F88800D1F88C2022F0007207
:101558000243C1F88C20DA0009D51249D4F88C006E
:10156800D1F88C2022F080620243C1F88C20012E31
:1015780000F0B580B3F1007F00F0B180012D75D186
:10158800084D2B6823F080532B60FFF71FF80646A1
:101598002B689F0000F1278121680E0306D5E36BB5
:1015A80043B103E00038024000700040CD021DD571
:1015B800236CDBB9934AD2F88830D2F8880003F458
:1015C800403300F0E0400343606943EA8013A069B8
:1015D80043EA0063C2F88830D2F88C30A06A23F45A
:1015E800F853013843EA0023C2F88C30880215D535
:1015F800E36FB3F1006F11D1824AD2F88830D2F884
:10160800880003F0706300F0E0400343606943EA38
:101618008013206A43EA0043C2F888300A0719D5C4
:101628007849D1F88820D1F8883002F0706203F444
:1016380040331343626943EA8213E26943EA02735F
:10164800C1F88830D1F88C30E26A23F44033134370
:10165800C1F88C306B4C236843F080532360FEF74D
:10166800B5FF054623689B0040F1C480002009E0CF
:10167800012657E6FEF7AAFFA0EB080064287FF6CC
:1016880069AE032003B0BDE8F083226B02F4407218
:1016980093423FF469AE3B6F3A6F23F4407342F4D0
:1016A80080323A673A6F22F480323A673B673B6F81
:1016B800DA077FF559AEFEF789FF41F2883980468F
:1016C8003B6F9B073FF550AEFEF780FFA0EB08008D
:1016D8004845F5D9D5E7916821F4F81154E6494E03
:1016E800336823F080633360FEF770FF0746336882
:1016F8001B0172D42268D70712D5636B83B9D6F859
:101708008430D6F8841003F4403301F070610B4341
:10171800616843EA8113A16843EA0173C6F884301B
:10172800160303D5E36BB3F5801F05D0D0021ED591
:10173800236CB3F5800F1AD13249D1F88430D1F82F
:10174800840003F4403300F0E0400343606843EA58
:101758008013E06843EA0063C1F88430D1F88C0054
:10176800636A20F01F00013B0343C1F88C30D101AC
:1017780011D52449D1F88430D1F8840003F070637E
:1017880000F0E0400343606843EA8013206943EABD
:101798000043C1F8843092010DD5236962681B04A7
:1017A80043EA8213E26843EA0263A26843EA0273E7
:1017B800144AC2F88430134E336843F080633360B0
:1017C800FEF704FF074633681B013FF5D7AEFEF767
:1017D800FDFEC01B6428F6D953E7FEF7F7FEC01BD1
:1017E800642884D94DE7FEF7F1FE801B64287FF654
:1017F800CFAE46E7FEF7EAFE401B64287FF632AF1D
:101808003FE700BF003802402DE9F043054689B0A4
:101818000E46FEF7DBFE0023814608212868009368
:10182800019301F0EAFA044640BB296D28680904CF
:1018380001F0EEFB044608BB4FF0FF33069002A907
:101848002868029308230393302304930223059303
:101858000123079301F0BEFA286801F00AFC044648
:1018680060B9074640F22A482868436B13EA080F14
:10187800436B07D0190718D508248463204609B09C
:10188800BDE8F0839B0207D501F0E8F908AB03EB4C
:101898008703013743F8200CFEF798FEA0EB0900F8
:1018A8000130E1D14FF00044E8E7436B9A0701D5D6
:1018B8000224E2E7436B9B0601D52024DDE740F2D2
:1018C800FF538363009B1BBA7360019B1BBA336091
:1018D800D4E72DE9F04F0D4687B004469146984667
:1018E800109EFEF773FE07462DB9A36B43F0006305
:1018F800A363012010E094F83400C0B2012840F03E
:10190800C18009EB0803E26D00219342A16306D967
:10191800A36B43F00073A36307B0BDE8F08F032304
:10192800206884F83430636CC1624FF40071012B75
:1019380018BF4FEA492901F060FA50B1236840F214
:10194800FF529A63A36B1843A063012084F8340004
:10195800E2E74FF0FF334FF0010A4FF0020B04901B
:1019680000934FEA48236946206801939023CDF8F5
:101978000CB00293CDF814A001F02CFAD04525D96B
:10198800C4F830B04946206801F067FA0028D5D17C
:101998002068436B13F4957F436B1ED0DB0509D594
:1019A800B8F1010F06D9636C032B03D001F09EFA3E
:1019B8000028C3D123685A6B100730D540F2FF5274
:1019C8009A63A36B43F00803A363BEE7C4F830A08F
:1019D8004946206801F029FAD8E71A040BD5A5F181
:1019E800040905F11C0A206801F038F949F8040FC8
:1019F800D145F8D1203566B9236840F2FF5203205B
:101A08009A63A36B43F00043A363012384F8343043
:101A180082E7FEF7DBFDC01B8642B9D8ECE75A6BBC
:101A2800910706D540F2FF529A63A36B43F0020375
:101A3800CAE75A6B920618D540F2FF529A63A36B15
:101A480043F02003C0E701F009F945F8040B3EB95B
:101A5800236840F2FF529A63A36B43F00043B3E755
:101A6800FEF7B4FDC01B8642F2D92068436B13F41D
:101A78000013E8D140F2FF5282630122184684F82D
:101A8800342049E7A36B43F0005331E72DE9F043D5
:101A98000D4687B0044691461E460E9FFEF796FDFA
:101AA80080462DB9A36B43F00063A363012010E0C7
:101AB80094F83400C0B2012840F09D8009EB060379
:101AC800E26D00219342A16306D9A36B43F0007332
:101AD800A36307B0BDE8F0830323206884F834309B
:101AE800636CC1624FF40071012B18BF4FEA49299A
:101AF80001F083F950B1236840F2FF529A63A36B57
:101B08001843A063012084F83400E2E7012E33D99A
:101B1800202349462068236301F0CFF90028EAD141
:101B28004FF0FF33039004906946009373022068D6
:101B38000193902302930123059301F04BF9206848
:101B4800436B13F48D7F436B1DD0DD0508D5012E43
:101B580006D9636C032B03D001F0C8F90028CAD159
:101B680023685A6B11072DD540F2FF529A63A36B75
:101B780043F00803A363C5E710234946206823639D
:101B880001F083F9CAE75B0409D5A946203549461F
:101B980009F10409206801F064F84D45F7D157B9F7
:101BA800236840F2FF5203209A63A36BA3630123C7
:101BB80084F834308DE7FEF709FDA0EB0800874272
:101BC800BDD8EDE75A6B920706D540F2FF529A63EB
:101BD800A36B43F00203CDE7586B40F2FF5210F0BD
:101BE80010009A6303D0A36B43F01003C2E70123EC
:101BF80084F834306DE7A36B43F0005355E7436E28
:101C08009A0F0A70C3F383624A70C3F301628A7041
:101C1800C3F30742CA70C3F30722DBB20A714B71E0
:101C2800836E1A0E1201CA80CA8830B592B2C3F305
:101C380003542243CA80C3F303420A72C3F3072240
:101C4800D4094C72C2F380148C72C2F34014CC7263
:101C5800C2F300140C7300244C73446C002C40F045
:101C6800838092029B0002F4406203F47F730A614E
:101C78000A691343C26E0B610B6943EA92730B61E5
:101C8800C2F3C2630B75C2F302634B75C2F34253CE
:101C98008B75C2F38243CB75D30B03F006030B7627
:101CA800C2F307230C7EC2F3C03222430A760A69C4
:101CB8000C7E01320234A240012442650D7AAC4008
:101CC8008465640A6243C2654FF400720266C3F316
:101CD80080125B004A7603F07E038B76C36E8A7EA1
:101CE800C3F3C01403F07F0322438A76CB76036FD5
:101CF800DA0FC3F381500A77C3F341724A77C3F30B
:101D080082628A779A0D02F00C02CA77CA7F024370
:101D18000020CA77C3F3405281F82020C3F3004261
:101D280081F8210081F82220C3F3C03281F82320F2
:101D3800C3F3803281F82420C3F3403281F8252090
:101D4800C3F3003281F82620C3F3812281F82720CB
:101D5800C3F30122C3F3460381F8282081F8293010
:101D6800012381F82A3030BD012C1AD11B0403F459
:101D78007C130B61C36E0A691C0E42EA04220A61D5
:101D8800C3F307420C69C3F3072322430A610A69B4
:101D9800920202F580624265C2654FF40072826564
:101DA80094E7036840F2FF529A63836B43F08053D1
:101DB8008363012380F83430184630BD70B576232C
:101DC80098B0002504460C930AAB0A950B95079525
:101DD8000895099593E8070007AB8DE80700206888
:101DE8000ECB00F01FFF2068436823F48073436024
:101DF80000F03CFF22680220536843F4807353606C
:101E0800FEF7EAFB2068069501F0A2F8064668B9D5
:101E1800206801F0C5F880B34FF6FF75A664069BED
:101E28005A1CAB42069208D14FF08076012084F804
:101E38003400A16B0E43A66383E00021206801F003
:101E4800E7F8014610B14FF08056EFE7206801F03F
:101E5800F7F801460028F6D1206800F022FF002894
:101E6800DDDA0023636401232068ADF8163000F042
:101E780001FF20BB4FF080656DE001234FF6FF7531
:101E8800A364069B5A1CAB420692CDD00021206861
:101E980001F0BEF806460028C8D14FF080412068FE
:101EA80001F0CEF806460028C0D10146206800F0AF
:101EB800F8FE0028E5DA4300D3D50123D2E7636CA6
:101EC800032B1AD0206801F0ECF80546002842D10F
:101ED8000146206800F0E5FE04216067206800F0F4
:101EE800E0FE0821A067206800F0DBFE0C21E06717
:101EF800206800F0D6FEC4F88000636C032B22D162
:101F0800636C032B2ED10421206800F0CAFE0DA9B2
:101F1800000DE0642046FFF772FE226D0023206862
:101F2800120400F0FDFF0546A8B904F1100393E878
:101F38000700231D8DE8070020680ECB00F072FE15
:101F4800284618B070BD0DF11601206801F0D4F8CC
:101F580005460028D4D0012084F83400A36B1D4323
:101F6800A563EEE7BDF8161020682165090401F0A5
:101F7800ADF805460028EED10146206800F091FE34
:101F880004216066206800F08CFE0821A0662068A5
:101F980000F087FE0C21E066206800F082FE2067D2
:101FA800B1E710B50446A0B190F8343003F0FF0251
:101FB80013B9027701F03AFC0323204684F8343041
:101FC800FFF7FCFE00200123A063206384F834306F
:101FD80010BD012010BD436C0B60836C4B60C36C5B
:101FE8008B60036DCB60436D0B61836D4B61C36D7B
:101FF8008B61036E0020CB617047032370B580F8B6
:1020080034308AB0436C04460E46032B02D0B1F537
:10201800805F03D1A36B43F0805356E0B1F5006FA6
:102028002DD1002100680491059100F03AFE80014D
:1020380020D404A92046FFF7E7FB60B9059B5903A4
:102048001AD5216D2068090400F0E2FF18B90221B1
:10205800206801F0D5F8A36B1843A063A56B002D89
:1020680035D0236840F2FF5201209A6384F8340087
:102078000AB070BD3046EEE74FF08060EBE709BB71
:1020880000680491059100F00CFE820114D404A9A3
:102098002046FFF7B9FB60B9059BDB030FD5216D1F
:1020A8002068090400F0B4FF18B90146206801F05F
:1020B800A7F8A16B0843D0E74FF40060F9E74FF0A9
:1020C8008060F6E7836B43F00063A363C6E7636849
:1020D80007960493A3680593E368069363690893D6
:1020E800A36909930AAB13E9070004AB8DE807005D
:1020F80020680ECB00F096FD0123284684F8343082
:10210800B6E7016D10B509040446006801F048F807
:10211800014628B9206800F0C4FDC0F3432010BD73
:10212800A36B00201943A163F7E7036A10B5046A9B
:1021380023F00A0324F001040B430462846924F0A9
:10214800F00444EA02128261036210BD036A23F0BC
:10215800100310B503628469036A24F4704423F001
:10216800A00344EA023243EA01138261036210BD0C
:1021780070470000304A0368904212D0B0F1804F97
:102188000FD0A2F57C4290420BD002F580629042BB
:1021980007D002F58062904203D002F5784290425F
:1021A8001DD14A6823F070031343234A904204D197
:1021B80023F44073CA68134328E0B0F1804FF7D086
:1021C8001E4A9042F4D002F580629042F0D002F5A7
:1021D80080629042ECD002F578429042E8D0184AEA
:1021E8009042E5D002F580629042E1D002F580622B
:1021F8009042DDD0A2F598329042D9D002F58062A3
:102208009042D5D002F580629042D1D04A6923F03D
:102218008003134303608B68C3620B688362064BB9
:10222800984206D003F58063984202D001234361A7
:1022380070470B690363F9E70000014000040040A0
:102248000040014010B50446A0B190F83D3003F0BD
:10225800FF021BB980F83C2001F034FB0223206800
:10226800211D84F83D30FFF785FF0123002084F805
:102278003D3010BD012010BD10B50446A0B190F846
:102288003D3003F0FF021BB980F83C20FFF770FFD8
:1022980002232068211D84F83D30FFF76BFF0123DE
:1022A800002084F83D3010BD012010BD036A23F0E2
:1022B800010370B50362036A4268846923F002036C
:1022C8000D6824F4803424F073042C438D682B4368
:1022D8000C4DA84209D005F58065A84205D042609A
:1022E8004A6884614263036270BDCD6823F00803C5
:1022F8008E6922F440722B434D69354323F0040361
:102308002A43ECE700000140036A23F0100370B58C
:102318000362036A4268846923F020030D6824F08D
:10232800807424F4E64444EA05248D6843EA0513DE
:102338000D4DA84209D005F58065A84205D0426038
:102348004A6884618263036270BDCD6823F08003AC
:102358008E6922F4406243EA05134D69354323F040
:10236800400342EA8502EAE700000140036A23F4D9
:10237800807370B50362036A4268C46923F400730A
:102388000D6824F4803424F073042C438D6843EAE8
:1023980005230E4DA84209D005F58065A84205D051
:1023A80042604A68C461C263036270BDCD6823F4A9
:1023B80000638E6922F4405243EA05234D69354390
:1023C80023F4806342EA0512EAE700BF00000140F7
:1023D800036A23F4805330B50362046A4268C36910
:1023E80024F400540D6823F0807323F4E64343EA91
:1023F80005238D6844EA0534094DA84209D005F53E
:102408008065A84205D04260C3614B6803640462DA
:1024180030BD22F480424D6942EA8512F3E700BFDD
:102428000000014010B50A43846842EA032324F4FB
:102438007F442343836010BD90F83C30012B10B5D6
:1024480004464FF0020018D084F83D0001232068AC
:1024580084F83C3082683E4B134083600B68402B05
:1024680059D015D8102B67D008D8002B5ED001237F
:10247800002084F83D3084F83C0010BD202B61D04A
:10248800302BF4D1836823F0700343F0370326E040
:10249800702B26D00ED8502B32D0602BE7D1CA68CB
:1024A8004968FFF753FE2268936823F0700343F0EE
:1024B800670323E0B3F5805F0CD0B3F5005FD6D196
:1024C800CB684A688968FFF7ADFF2268936843F4D0
:1024D800804313E0836823F4803323F00703836089
:1024E800C5E7CB684A688968FFF79CFF226893684C
:1024F80023F4803323F0770343F077039360B6E740
:10250800CA684968FFF711FE2268936823F07003D0
:1025180043F05703F2E7CA684968FFF706FE2268E6
:10252800936823F0700343F04703E7E7836823F0D9
:10253800700343F00703D2E7836823F0700343F086
:102548001703CCE7836823F0700343F02703C6E73B
:102558008800FEFF036A23F4803330B50362026A01
:102568004468436D22F400320D6823F4803323F06D
:1025780070032B438D6842EA0542094DA84203D0F7
:1025880005F58065A84204D124F480344D6944EAF5
:102598000524446043654B688365026230BD00BF13
:1025A80000000140036A23F4801330B50362026A15
:1025B8004468436D22F400120D6823F0807323F4FD
:1025C800E04343EA05238D6842EA0552084DA842D4
:1025D80003D005F58065A84204D124F480244D6910
:1025E80044EA8524446043654B68C365026230BD94
:1025F8000000014090F83C30012B30B51CD0026837
:102608000E4D5368AA42946803D005F58065AA4226
:1026180003D123F470034D682B430D6823F0700336
:10262800896824F080042B43214353600023916080
:1026380080F83C30184630BD022030BD0000014013
:1026480038B590F83C3004460D460220012B10D0D6
:102658000123082A84F83D0084F83C3043D009D887
:10266800FAB1042A2ED00123002084F83D3084F8E2
:102678003C0038BD102A47D0142A56D00C2AF2D173
:102688002068FFF7A5FE23682969DA6942F4006229
:10269800DA61DA6922F48062DA61DA6942EA0122EF
:1026A80030E02068FFF702FE236829699A6942F042
:1026B80008029A619A6922F004029A619A690A43A7
:1026C8009A61D0E72068FFF71FFE236829699A6995
:1026D80042F400629A619A6922F480629A619A6966
:1026E80042EA0122ECE72068FFF740FE23682969E7
:1026F800DA6942F00802DA61DA6922F00402DA6182
:10270800DA690A43DA61AEE72068FFF723FF236836
:1027180009695A6D42F008025A655A6D22F004029E
:102728005A655A6D0A435A659DE72068FFF73AFFD4
:10273800236809695A6D42F400625A655A6D22F499
:1027480080625A655A6D42EA0122ECE72DE9F041B0
:10275800069D04460F46164698462168CA6937EA18
:1027680002030CBF01220022B24202D00020BDE8C1
:10277800F0816B1CF2D09DB9236803201A6822F4FB
:10278800D0721A609A6822F001029A60202384F8B5
:10279800693084F86A30002384F86830BDE8F08135
:1027A800FDF714FFA0EB08008542D6D8E4E7000047
:1027B80038B504460568C3692169A26828680A43D0
:1027C80061690A4393491A430140206A0A43E16850
:1027D8002A606A6822F440520A436A60A269A968BA
:1027E800024321F430610A43AA608B4A954219D109
:1027F80002F594328949D2F8902002F00302B3F529
:10280800004F8A5C40F0B380082A00F2AD80DFE810
:1028180012F026007B00E900AB00F500AB00AB002E
:10282800AB00FB007E4A954207D102F5FA327D499A
:10283800D2F8902002F00C02E1E77B4A95422BD1B6
:1028480002F5F832D2F8902002F03002102A00F097
:10285800D28016D8DAB9B3F5004F40F09F80FEF762
:1028680005FD61684A0802EB4003B3FBF1F39BB234
:10287800002023F00F02C3F3420321681343CB6007
:1028880038BD202A00F0AB80302A00F0BA80B3F5BA
:10289800004F69D0012038BD644A95420ED102F537
:1028A800F632D2F8902002F0C002402A00F0A3804D
:1028B800D0D9802A00F09380C02AE6E75C4A954286
:1028C80010D102F5F432D2F8902002F44072B2F539
:1028D800807F00F09080BDD9B2F5007F7FD0B2F53F
:1028E800407FD2E7534A954217D102F59232D2F887
:1028F800902002F44062B2F5806F7CD007D8002A9D
:10290800C5D1B3F5004F54D1FEF7C0FCA9E7B2F525
:10291800006F64D0B2F5406FB7E7474A95420FD1D0
:1029280002F5E032D2F8902002F44052B2F5805F0E
:1029380061D08FD9B2F5005F51D0B2F5405FA4E7FE
:102948003E4A9542A3D102F5DE32D2F8902002F435
:102958004042B2F5804F4ED07FF67CAFB2F5004FC3
:102968003DD0B2F5404F90E70120002381E7082AC7
:1029780090D801A353F822F0A5290008BB29000824
:10298800C12900089D280008D72900089D280008AB
:102998009D2800089D280008DD290008FEF766FC30
:1029A800636800EB5300B0FBF3F080B2E8600020EE
:1029B80038BDFEF76BFCF3E76268530803F5740350
:1029C80003F51053B3FBF2F39BB2EB60EFE7FEF7AE
:1029D80081FBE5E76268530803F50043F2E7B3F5C6
:1029E800004FE9D16068430803F1F47303F590439D
:1029F800B3FBF0F33BE7B3F5004FE8D1FEF76AFB12
:102A08002FE7B3F5004FE5D16068430803F580333D
:102A1800EEE700BFF369FFEF00100140A83D000892
:102A280000440040AC3D000800480040004C004015
:102A3800005000400014014000780040007C004035
:102A4800436ADA0710B506D50168846A4A6822F431
:102A5800003222434A609C0706D50168C46A4A6866
:102A680022F4803222434A60590706D50168046B74
:102A78004A6822F4802222434A601A0706D5016870
:102A8800446B4A6822F4004222434A60DC0606D5B9
:102A98000168846B8A6822F4805222438A6099060E
:102AA80006D50168C46B8A6822F4005222438A6002
:102AB8005A0610D50168046C4A68B4F5801F22F4E0
:102AC800801242EA04024A6005D14A68446C22F442
:102AD800C00222434A601B0606D50268816C53680F
:102AE80023F400230B43536010BD37B5002504467B
:102AF800C566FDF76BFD226803461268120709D404
:102B08002023002084F8693084F8680084F86A304B
:102B180003B030BD6FF07E424FF4001120460092A2
:102B28002A46FFF713FE0028EAD00320F0E710B585
:102B3800044660B390F8693003F0FF021BB980F8CF
:102B4800682000F00DFF22682423204684F86930AD
:102B5800136823F001031360FFF72AFE012816D03B
:102B6800636A13B12046FFF76BFF236820465A6853
:102B780022F490425A609A6822F02A029A601A68EF
:102B880042F00102BDE810401A60FFF7AEBF012015
:102B980010BD0000114B4FF4FA521B68B3FBF2F260
:102BA80041F28833534313F1FF3314D3426B12F0CD
:102BB800450FF8D0436B5B0703D50423836318469E
:102BC8007047436B13F0010301D00123F6E740F28D
:102BD800FF528263F3E74FF00043F0E70C00002058
:102BE8000F4B4FF4FA521B68B3FBF2F241F28833F1
:102BF800534313F1FF330FD3426B12F0450FF8D054
:102C0800436B13F0040303D004238363184670470F
:102C180040F2FF528263F9E74FF00040704700BF6F
:102C28000C00002084B010B503AC84E80E000499B1
:102C3800039B42680B43059922F4FD420B43069916
:102C480022F07F020B4307990B4308990B43BDE819
:102C58001040134304B0436000207047D0F8800050
:102C680070470B68C0F8803000207047032303606A
:102C780000207047006800F0030070470B6810B52B
:102C880083608C684B68C2682343CC6822F47F62F7
:102C98000969234322F00F020B431343C36000204A
:102CA80010BD143082B00023014401930191019BAF
:102CB800186802B070470000444B10B51B684FF409
:102CC800FA54B3FBF4F35A43002A49D0436B013A50
:102CD80013F0450FF8D0436B5C0703D504238363D7
:102CE800184610BD436B13F0010301D00123F6E72A
:102CF8000269D2B2914236D140F2FF52194682633C
:102D0800FFF7CFFF324B0340002BE9D000282CDB24
:102D180042002DD484002DD4C1002DD402012ED41C
:102D280044012FD4C10130D4020231D4440232D438
:102D3800810233D4C20234D4440335D4810336D457
:102D4800C20337D4040438D4410439D482043AD4B1
:102D580010F0080F14BF4FF400034FF48033BFE79F
:102D68004FF00043BCE70123BAE74FF00073B7E721
:102D78004023B5E78023B3E74FF48073B0E74FF4FF
:102D88000073ADE74FF48063AAE74FF40063A7E749
:102D98004FF48053A4E74FF40053A1E74FF4804366
:102DA8009EE74FF400439BE74FF4003398E74FF456
:102DB800802395E74FF4002392E74FF480138FE7C1
:102DC8004FF400138CE74FF4800389E70C000020D0
:102DD80008E0FFFD0B6810B543624B68CC6883625E
:102DE8008B68C26A23430C69496922F0F7022343BE
:102DF8000B431343C362002010BD30B5402387B096
:102E08001024054603930023019101A904934FF46C
:102E1800806302940593FFF731FF41F2883221461F
:102E28002846FFF749FF07B030BD30B5402387B0CB
:102E38001124054603930023019101A904934FF43B
:102E4800806302940593FFF719FF41F28832214607
:102E58002846FFF731FF07B030BD30B5402387B0B3
:102E68001224054603930023019101A904934FF40A
:102E7800806302940593FFF701FF41F288322146EF
:102E88002846FFF719FF07B030BD30B5402387B09B
:102E98001824054603930023019101A904934FF4D4
:102EA800806302940593FFF7E9FE41F288322146D8
:102EB8002846FFF701FF07B030BD30B5402387B083
:102EC8001924054603930023019101A904934FF4A3
:102ED800806302940593FFF7D1FE41F288322146C0
:102EE8002846FFF7E9FE07B030BD000030B50023E3
:102EF80087B00C2440220193054604934FF4806365
:102F080001A9039205930294FFF7B8FE034A2146EC
:102F18002846FFF7D1FE07B030BD00BF00E1F50538
:102F280030B5402387B0072405460393002301A941
:102F3800019204934FF4806302940593FFF79EFE79
:102F480041F2883221462846FFF7B6FE07B030BD69
:102F580010B5002386B00446019301A90293039398
:102F680004934FF480630593FFF788FE0B4B4FF4EF
:102F7800FA521B68B3FBF2F241F28833534313F160
:102F8800FF3308D3626B1206F9D540F2FF530020D5
:102F9800A36306B010BD4FF00040FAE70C00002014
:102FA80010B54FF4D57386B004460193082301A9E0
:102FB800029340230393002304934FF48063059303
:102FC800FFF75CFE114B4FF4FA521B68B3FBF2F2A9
:102FD80041F28833534313F1FF3314D3626B12F079
:102FE800450FF8D0626B12F0040204D0402304208D
:102FF800A36306B010BD606B10F04000F9D0402309
:103008001046A363F5E74FF00040F2E70C000020FC
:1030180030B5402387B03724054603930023019138
:1030280001A904934FF4806302940593FFF726FEE9
:1030380041F2883221462846FFF73EFE07B030BDF0
:1030480010B5292386B041F000410446029340237D
:1030580041F4801103930023019101A904934FF4D3
:1030680080630593FFF70AFE2046FFF7B9FD06B017
:1030780010BD30B5002387B03324402201930546A4
:1030880004934FF4806301A9039205930294FFF718
:10309800F5FD41F2883221462846FFF70DFE07B0BC
:1030A80030BD10B5002386B002220446019301A961
:1030B8000292C02204934FF4806303920593FFF7B2
:1030C800DDFD2046FFF766FD06B010BD10B50923EB
:1030D80086B004460293C023019101A903930023FB
:1030E80004934FF480630593FFF7C8FD2046FFF76C
:1030F80051FD06B010BD000030B5002387B0032293
:103108000D46019301A90292402204934FF4806373
:10311800039204460593FFF7B1FD204B4FF4FA5292
:103128001B68B3FBF2F241F28833534313F1FF33C8
:103138002BD3626B12F0450FF8D0636B5A0703D597
:103148000420A06307B030BD616B11F0010101D00C
:103158000120F6E72369DBB2032B19D140F2FF53B4
:103168002046A363FFF79DFD10F4604303D1000CD4
:1031780028801846E6E743040CD410F4004F14BF27
:103188004FF480504FF48030DCE74FF00040D9E72F
:103198000120D7E74FF40050D4E700BF0C0000200F
:1031A80030B5402387B00D240546039300230191D1
:1031B80001A904934FF4806302940593FFF75EFD21
:1031C80041F2883221462846FFF776FD07B030BD28
:1031D80030B5402387B006240546039300230191A8
:1031E80001A904934FF4806302940593FFF746FD09
:1031F80041F2883221462846FFF75EFD07B030BD10
:10320800FFF7E6BF0F4B30B55D7A05F0FF04B5B99F
:103218005D7A5C555D7A03EB85056860587A1844D9
:1032280002725A7AD2B2501C3032C0B258723A2363
:103238000A7020464B702F23CC708B7030BD012054
:1032480030BD00BF2C0000200022FFF7DBBF0000CC
:1032580007B5009313460A4601460448FEF739FBB2
:10326800003018BF012003B05DF804FB54050020AE
:1032780007B5009313460A4601460448FEF706FCC4
:10328800003018BF012003B05DF804FB540500208E
:1032980008B50348FEF735FF043818BF012008BDFC
:1032A8005405002001460148FEF795BE540500204C
:1032B800012307B58DF8073000F02CF808B98DF810
:1032C80007009DF8070003B05DF804FB08B5FFF799
:1032D800EFFF01280CD10748FEF763FE48B94FF409
:1032E80000610448FEF789FE003018BF012008BDC0
:1032F800022008BD5405002008B503490348FFF71C
:10330800A3FF034B187008BD3D000020BC3D00081A
:103318003C00002008B54FF400410348FDF7B8FA17
:10332800B0FA80F0400908BD0000024010B5B8B0FE
:1033380034220021022407A800F010FC14220021E6
:1033480002A800F00BFC9022002114A800F006FC53
:10335800244B07A81A6C42F080521A641B6C03F0C5
:1033680080530093009B204B1A6842F440421A6035
:103378001B68079403F440430D9411940193019B37
:1033880001230A9310230B9300230E9308230F9312
:10339800D823109309231293FDF708FD00B1FEE727
:1033A800FDF7CCFC00B1FEE70F230490072102A82B
:1033B80002934FF4A053039405934FF4805306935C
:1033C800FDF7B6FE00B1FEE7084B25902790289040
:1033D8003390349014A81493FDF768FF00B1FEE70A
:1033E80038B010BD00380240007000404003A00013
:1033F80080B592B0BFF34F8FBFF36F8FA04B002102
:10340800C3F850125A6942F400325A61BFF34F8F21
:10341800BFF36F8FC3F88410BFF34F8FD3F88020AA
:1034280043F6E076C2F3C904C2F34E32A50752014F
:1034380002EA060E2846214640EA0E07013900F145
:103448004040C3F860724F1CF6D1203A12F1200FA9
:10345800EED1BFF34F8F5A6942F480325A61BFF3FD
:103468004F8FBFF36F8FFDF78FF80024FFF75EFFD4
:10347800142200210BA800F071FB824B4FF4E0618D
:1034880081481A6B42F002021A631A6B02F00202B8
:103498000092009A1A6B42F008021A631A6B02F043
:1034A80008020192019A1A6B42F004021A631A6B1D
:1034B80002F004020292029A1A6B42F001021A63A5
:1034C80000221B6B03F001030393039BFDF7E6F94E
:1034D80040230BA96D480B930C940D94FDF7EEF85F
:1034E80080230BA969480B9302230D940C930323A3
:1034F8000E940F93FDF7E2F84FF4E0630BA96248CE
:103508000B9301230D940C930E94FDF7D7F84FF409
:1035180000430BA95C480B930C940D94FDF7CEF86F
:103528005B485C4B0360FDF7CDFA044600B1FEE74B
:10353800594B5A4A5A4DD8601861586183E81400AB
:103548004FF480629A600A229A61FFF7D5FE102232
:1035580021460BA800F002FB524B2846079408941A
:103568000994AC60EC602C616C61AC6185E8180072
:10357800FEF768FE00B1FEE74FF480530BA928461A
:103588000B93FEF759FF00B1FEE7079007A90890D3
:1035980009902846FFF72EF800B1FEE7424B4FF49A
:1035A800E135424A0C249860D86018619861D86166
:1035B8001862586218465C6183E82400FFF7B7FA7E
:1035C80000B1FEE73A4B3B4A9860D86018619861B1
:1035D800D8611862586218465C6183E82400FFF7D6
:1035E800A6FA00B1FEE7344B344A9860D8601861F7
:1035F8009861D8611862586218465C6183E82400B3
:10360800FFF795FA044600B1FEE70146102207A825
:1036180000F0A4FA1C2221460BA8049405940694F1
:1036280000F09CFA2648274B8460C46004618461DA
:1036380080E81800FEF706FE00B1FEE74FF480535D
:1036480007A91F480793FEF7F7FE00B1FEE71C48DD
:10365800FEF712FE00B1FEE7049004A90690184890
:10366800FEF7C8FF024600B1FEE760230C900D90FC
:103678000BA90F9012480B93FEF7E2FF20B3FEE769
:1036880000ED00E00038024000000240000802405F
:10369800D80500200010055054050020002C0140DA
:1036A8009C06002000000140E4040020004800407F
:1036B800DC060020004C00402C06002000100140D1
:1036C800A40400200008004004220BA90B48FEF7C0
:1036D800B7FF00B1FEE708220BA90848FEF7B0FFC4
:1036E80000B1FEE70C220BA90448FEF7A9FF00B1C0
:1036F800FEE7024800F00CF9FEE700BFA404002032
:1037080010B50123054C2370FFF7C2FD234618B9F5
:10371800227802F0FE022270187810BD08000020FE
:1037280010B50123044C2370FFF7D0FD10B9FFF743
:10373800E7FF2070207810BD08000020FFF7E0BFE9
:1037480008B5084611461A464FF0FF33FFF780FDCB
:1037580020B9FFF79DFD0028FBD108BD012008BD59
:10376800124B10B51B7888B01446DB071BD403290D
:1037780003D8DFE801F010050B12042008B010BDD3
:103788006846FFF78FFD069B236004E06846FFF755
:1037980089FD079B23800020F0E76846FFF782FD3C
:1037A800079B5B0AF0E70320E8E700BF080000205A
:1037B80008B5084611461A464FF0FF33FFF758FD83
:1037C80020B9FFF765FD0028FBD108BD012008BD21
:1037D8000A4B82B01A6C42F080521A641A6C02F0DA
:1037E80080520092009A5A6C42F480425A645B6C90
:1037F80003F480430193019B02B0704700380240F4
:10380800026882B0074B9A4209D1074B5A6B42F0C3
:1038180002025A635B6B03F002030193019B02B03F
:10382800704700BF001005500038024070B588B0DE
:1038380004461422002103A800F090F922681E4BC8
:103848009A4236D103F586330C24022603255A6C96
:103858000DEB0401194842F400625A645A6C02F4F0
:1038680000620092009A1A6B42F004021A631A6B03
:1038780002F004020192019A1A6B42F008021A63DC
:103888001B6B049603F00803069507940293029BAA
:103898004FF4F8530393FCF711FF04230DEB0401D5
:1038A8000748039300230496059306950794FCF7AD
:1038B80005FF08B070BD00BF002C014000080240A1
:1038C800000C0240036882B00E4A93420BD10E4BA3
:1038D8005A6C42F001025A645B6C03F001030093D6
:1038E800009B02B07047094A9342FAD1064B1A6C02
:1038F80042F004021A641B6C03F004030193019B59
:10390800EFE700BF00000140003802400008004017
:1039180010B586B004461422002101A800F01EF953
:1039280022680D4B9A4214D103F50C3301A90B48B8
:103938001A6B42F008021A631B6B03F0080300932A
:10394800009B4FF470430193022302930593FCF705
:10395800B5FE06B010BD00BF00080040000C0240D4
:1039680010B58CB004461422002107A800F0F6F820
:103978002368344A934221D1334B07A933481A6C40
:1039880042F400221A641A6C02F400220192019A8D
:103998001A6B42F001021A631B6B03F001030293D6
:1039A800029B4FF4C05307930223089303230A93FF
:1039B80006230B93FCF782FE0CB010BD244A9342F9
:1039C8001ED1214B07A923485A6C42F010025A64B1
:1039D8005A6C02F010020392039A1A6B42F0020228
:1039E8001A631B6B03F002030493049B4FF44043D8
:1039F80007930223089303230A9304230B93D9E71D
:103A0800154A9342D8D1104B07A914481A6C42F4AE
:103A180080221A641A6C02F480220592059A1A6BA5
:103A280042F008021A631B6B03F008030693069B17
:103A38004FF4407307930223089303230A93072341
:103A48000B93B7E7004C00400038024000000240EA
:103A5800001001400004024000480040000C0240F1
:103A68007047FEE7FEE7FEE7FEE7704770477047DE
:103A7800FCF7A0BD0F490020D1F8883043F470034B
:103A8800C1F888300C4B1A6842F001021A6098603D
:103A98001A6822F0847222F480321A60074A5A6047
:103AA8001A6822F480221A60D8604FF000638B6095
:103AB800704700BF00ED00E00038024010300024DD
:103AC800DFF834D0002103E00C4B5B58435004313D
:103AD8000B480C4B42189A42F6D30B4A02E00023DB
:103AE80042F8043B094B9A42F9D3FFF7C3FF00F0B1
:103AF80011F8FFF77DFC704700000820F83D00082A
:103B08000000002010000020100000204C070020BA
:103B1800FEE7000070B50D4E0D4CA41BA410002547
:103B2800A54209D10B4E0C4C00F020F8A41BA410A0
:103B38000025A54205D170BD56F8253098470135B6
:103B4800EEE756F8253098470135F2E7F03D0008D2
:103B5800F03D0008F03D0008F43D0008024403462B
:103B6800934200D1704703F8011BF9E7F8B500BF8D
:103B7800F8BC08BC9E467047F8B500BFF8BC08BC46
:043B88009E4670479E
:103B8C000002010204040304070504040001027787
:103B9C000001020311040521310612415107617124
:103BAC001322328108144291A1B1C109233352F07E
:103BBC00156272D10A162434E125F11718191A2648
:103BCC002728292A35363738393A43444546474859
:103BDC00494A535455565758595A63646566676831
:103BEC00696A737475767778797A82838485868727
:103BFC0088898A92939495969798999AA2A3A4A54A
:103C0C00A6A7A8A9AAB2B3B4B5B6B7B8B9BAC2C375
:103C1C00C4C5C6C7C8C9CAD2D3D4D5D6D7D8D9DAA1
:103C2C00E2E3E4E5E6E7E8E9EAF2F3F4F5F6F7F8BF
:103C3C00F9FA000201030302040305050404000061
:103C4C00017D0102030004110512213141061351BB
:103C5C006107227114328191A1082342B1C115521E
:103C6C00D1F02433627282090A161718191A252604
:103C7C002728292A3435363738393A4344454647BC
:103C8C0048494A535455565758595A6364656667A0
:103C9C0068696A737475767778797A838485868790
:103CAC0088898A92939495969798999AA2A3A4A599
:103CBC00A6A7A8A9AAB2B3B4B5B6B7B8B9BAC2C3C5
:103CCC00C4C5C6C7C8C9CAD2D3D4D5D6D7D8D9DAF1
:103CDC00E1E2E3E4E5E6E7E8E9EAF1F2F3F4F5F62C
:103CEC00F7F8F9FA1112182F6363636312151A426D
:103CFC0063636363181A3863636363632F4263639C
:103D0C006363636363636363636363636363636377
:103D1C006363636363636363636363636363636367
:103D2C0063636363000301010101010101010100EF
:103D3C0000000000000102030405060708090A0B35
:103D4C00000105010101010101000000000000005B
:103D5C00000102030405060708090A0B100B0A10E0
:103D6C001828333D0C0C0E131A3A3C370E0D101854
:103D7C00283945380E11161D3357503E121625386A
:103D8C00446D674D182337405168715C31404E5774
:103D9C0067797865485C5F62706467630104020848
:103DAC000010101004101010021010100800000069
:103DBC00293700084537000849370008B93700088B
:103DCC006937000800000000000000000102030435
:0C3DDC00060708090000000001020304B3
:083DE80080C4FF7F0100000010
:043DF0001D020008A8
:043DF400F9010008C9
:103DF8000100000010000000010000000024F40091
:0400000508003AC9EC
:00000001FF
